:020000040000FA
:100000000C945D000C9485000C9485000C94850084
:100010000C9485000C9485000C9485000C9485004C
:100020000C9485000C9485000C9485000C9485003C
:100030000C9485000C9485000C9485000C9485002C
:100040000C94EF020C9485000C945F030C9439031C
:100050000C9485000C9485000C9485000C9485000C
:100060000C9485000C9485000000000024002700FB
:100070002A0000000000250028002B0004040404CE
:100080000404040402020202020203030303030342
:10009000010204081020408001020408102001021F
:1000A00004081020000000080002010000030407FB
:1000B00000000000000000002E0611241FBECFEF3C
:1000C000D8E0DEBFCDBF22E0AAE6B1E001C01D92BC
:1000D000A031B207E1F711E0A0E0B1E0EEE9F0E114
:1000E00002C005900D92AA36B107D9F710E0CDE510
:1000F000D0E004C02197FE010E944708CC35D1070B
:10010000C9F70E9491030C944D080C94000090E0F4
:10011000FC01EC55FF4F2491FC01E057FF4F349157
:10012000FC01E458FF4FE491EE23C9F0222339F09B
:10013000233001F1A8F4213019F1223029F1F0E047
:10014000EE0FFF1FEE58FF4FA591B4918FB7F894B3
:10015000EC91611126C030953E233C938FBF0895EA
:100160002730A9F02830C9F0243049F78091800069
:100170008F7D03C0809180008F7780938000DFCFD8
:1001800084B58F7784BDDBCF84B58F7DFBCF809125
:10019000B0008F778093B000D2CF8091B0008F7D78
:1001A000F9CF3E2BDACFCF93DF9390E0FC01E057FD
:1001B000FF4F249184589F4FFC0184918823D1F0F4
:1001C00090E0880F991FFC01E859FF4FA591B49169
:1001D000FC01EE58FF4FC591D49161110EC09FB73D
:1001E000F8948C91E22FE0958E238C932881E22362
:1001F000E8839FBFDF91CF9108958FB7F894EC917A
:10020000E22BEC938FBFF6CF8E3008F08E508770C4
:10021000806480937C0080917A00806480937A006F
:1002200080917A0086FDFCCF8091780090917900D2
:1002300008953FB7F89480916F0190917001A0915B
:100240007101B091720126B5A89B05C02F3F19F02E
:100250000196A11DB11D3FBFBA2FA92F982F882746
:10026000BC01CD01620F711D811D911D42E0660F21
:10027000771F881F991F4A95D1F708958F929F92F3
:10028000AF92BF92CF92DF92EF92FF924B015C014F
:100290000E9419016B017C010E9419016C197D09F2
:1002A0008E099F09683E734081059105A8F321E0FE
:1002B000821A9108A108B10888EEC80E83E0D81E02
:1002C000E11CF11C81149104A104B10429F7FF90F1
:1002D000EF90DF90CF90BF90AF909F908F90089558
:1002E000AF92BF92CF92DF92EF92FF920F931F9344
:1002F000CF93DF936C017B018B01040F151FEB0182
:100300005E01AE18BF08C017D10759F06991D60138
:10031000ED91FC910190F081E02DC6010995892BAA
:1003200079F7C501DF91CF911F910F91FF90EF9069
:10033000DF90CF90BF90AF900895FC01538D448D16
:10034000252F30E0842F90E0821B930B541710F080
:10035000CF96089501970895FC01918D828D98178D
:1003600061F0A28DAE0FBF2FB11D5D968C91928D65
:100370009F5F9F73928F90E008958FEF9FEF089596
:10038000FC01918D828D981731F0828DE80FF11D5F
:10039000858D90E008958FEF9FEF0895FC01918D7A
:1003A000228D892F90E0805C9F4F821B91098F7373
:1003B0009927089583E791E00E94CE0121E0892BDF
:1003C00009F420E0822F089580E090E0892B29F045
:1003D0000E94DA0181110C9400000895FC01A48DA3
:1003E000A80FB92FB11DA35ABF4F2C91848D90E057
:1003F00001968F739927848FA689B7892C93A0893A
:10040000B1898C91837080648C93938D848D9813C3
:1004100006C00288F389E02D80818F7D8083089556
:10042000EF92FF920F931F93CF93DF93EC0181E044
:10043000888F9B8D8C8D98131AC0E889F9898081EB
:1004400085FF15C09FB7F894EE89FF896083E8891E
:10045000F98980818370806480839FBF81E090E010
:10046000DF91CF911F910F91FF90EF900895F62E9D
:100470000B8D10E00F5F1F4F0F731127E02E8C8D37
:100480008E110CC00FB607FCFACFE889F98980817C
:1004900085FFF5CFCE010E94EE01F1CFEB8DEC0F81
:1004A000FD2FF11DE35AFF4FF0829FB7F8940B8F99
:1004B000EA89FB8980818062CFCFCF93DF93EC0103
:1004C000888D8823B9F0AA89BB89E889F9898C913C
:1004D00085FD03C0808186FD0DC00FB607FCF7CFF8
:1004E0008C9185FFF2CF808185FFEDCFCE010E94F8
:1004F000EE01E9CFDF91CF910895FC01019000203A
:10050000E9F73197AF01481B590BBC0183E791E034
:100510000C9470018F929F92AF92BF920F931F9392
:10052000CF93DF93CDB7DEB7A1970FB6F894DEBFB8
:100530000FBECDBF19A2423008F44AE08E010F5D14
:100540001F4F842E912CB12CA12CA50194010E9447
:100550002508E62FB901CA01EA30F4F4E05DD801BC
:10056000EE938D01232B242B252B79F790E080E04F
:10057000109719F0CD010E947D02A1960FB6F89454
:10058000DEBF0FBECDBFDF91CF911F910F91BF9006
:10059000AF909F908F900895E95CE1CFCF93DF9368
:1005A0000E947D02EC0182E191E00E947D028C0FAD
:1005B0009D1FDF91CF910895CF93DF93BC01990FD9
:1005C000880B990B4AE00E948A02EC0182E191E0DB
:1005D0000E947D028C0F9D1FDF91CF9108951F9285
:1005E0000F920FB60F9211242F933F938F939F93E7
:1005F000AF93BF9380916B0190916C01A0916D01BD
:10060000B0916E0130916A0123E0230F2D3758F528
:100610000196A11DB11D20936A0180936B019093F7
:100620006C01A0936D01B0936E0180916F01909168
:100630007001A0917101B09172010196A11DB11DCF
:1006400080936F0190937001A0937101B093720138
:10065000BF91AF919F918F913F912F910F900FBEBE
:100660000F901F90189526E8230F0296A11DB11D2B
:10067000D2CF1F920F920FB60F9211242F933F9358
:100680004F935F936F937F938F939F93AF93BF939A
:10069000EF93FF9383E791E00E94EE01FF91EF91CA
:1006A000BF91AF919F918F917F916F915F914F918A
:1006B0003F912F910F900FBE0F901F9018951F9292
:1006C0000F920FB60F9211242F938F939F93EF9356
:1006D000FF93E0918301F09184018081E091890191
:1006E000F0918A0182FD1BC0908180918C018F5F07
:1006F0008F7320918D01821741F0E0918C01F0E021
:10070000ED58FE4F958F80938C01FF91EF919F9153
:100710008F912F910F900FBE0F901F901895808191
:10072000F4CF789484B5826084BD84B5816084BD43
:1007300085B5826085BD85B5816085BD80916E007F
:10074000816080936E0010928100809181008260B0
:1007500080938100809181008160809381008091ED
:1007600080008160809380008091B10084608093DC
:10077000B1008091B00081608093B00080917A00D8
:10078000846080937A0080917A00826080937A00FE
:1007900080917A00816080937A0080917A008068ED
:1007A00080937A001092C10060E08EE00E94D30036
:1007B00060E08FE00E94D30060E080E10E94D300FF
:1007C00061E087E00E94D30061E086E00E94D300F0
:1007D00061E085E00E94D300E0918301F091840103
:1007E00082E08083E0917F01F09180011082E091AE
:1007F0008101F09182018FEC808310928B01E09156
:100800008701F091880186E08083E0918501F09175
:100810008601808180618083E0918501F09186016D
:10082000808188608083E0918501F09186018081DC
:1008300080688083E0918501F091860180818F7DC1
:100840008083C0E0D0E061E087E00E94870060E044
:1008500086E00E94870065E070E080E090E00E9402
:100860003E018EE00E9404017C018FE00E940401A1
:10087000BC01990F880B990B0E9462062AE038E2AE
:1008800040EA5BE30E94C1064B015C01B701FF0C2B
:10089000880B990B0E9462062AE038E240EA5BE38B
:1008A0000E94C1069B01AC01C501B4010E947F07F3
:1008B0006B017C0120E030E0A9010E941B081816A2
:1008C00024F0F7FAF094F7F8F09420E030E040E2FA
:1008D00050E4C701B6010E941B081816ECF426E686
:1008E00036E646E950E4C701B6010E945B0687FF81
:1008F00013C085E191E00E94CE0287E291E00E9460
:100900007D028EE090E00E94DC028AE291E00E948B
:100910007D028FE090E069C060E087E00E94870080
:1009200061E086E00E94870065E070E080E090E092
:100930000E943E018EE00E9404016C018FE00E9443
:1009400004017C01B601DD0C880B990B0E94620644
:100950002AE038E240EA5BE30E94C1064B015C01F9
:10096000B701FF0C880B990B0E9462062AE038E25F
:1009700040EA5BE30E94C1069B01AC01C501B401E2
:100980000E947F076B017C0120E030E0A9010E94FA
:100990001B08181624F0F7FAF094F7F8F09420E00A
:1009A00030E040E250E4C701B6010E941B0818166F
:1009B000BCF526E636E646E950E4C701B6010E94DA
:1009C0005B0687FF2DC085E191E00E94CE0287E2A1
:1009D00091E00E947D028FE090E00E94DC028AE2BA
:1009E00091E00E947D028EE090E00E94DC0288E4AB
:1009F00091E00E94CE0284E591E00E94CE0268EE72
:100A000073E080E090E00E943E01209709F41BCF44
:100A10000E94DA01882309F416CF0E94000013CF48
:100A200068EE73E080E090E00E943E012AE939E937
:100A300049E15FE3C701B6010E941B08181654F490
:100A40002DEC3CEC4CE45FE3C701B6010E945B0671
:100A500087FD53CF61E087E00E94870060E086E079
:100A60000E94870065E070E080E090E00E943E0117
:100A70008EE00E9404017C018FE00E940401BC0111
:100A8000990F880B990B0E9462062AE038E240EA2F
:100A90005BE30E94C1064B015C01B701FF0C880BB0
:100AA000990B0E9462062AE038E240EA5BE30E946A
:100AB000C1069B01AC01C501B4010E947F076B0117
:100AC0007C01AC019B010E942008882341F18DE24A
:100AD00091E00E947D0282E191E00E947D022AE97C
:100AE00039E949E15FE3C701B6010E941B08181606
:100AF0000CF0A7C02DEC3CEC4CE45FE3C701B60161
:100B00000E945B0687FF9DC08AE291E00E947D0201
:100B10008EE090E00E94DC0287E291E0F8CE460190
:100B20005701E894B7F82FEF3FEF4FE75FE7C501B4
:100B3000B4010E94200881110DC02FEF3FEF4FE755
:100B40005FE7C501B4010E945B0618161CF481E33F
:100B500091E0BFCF2FEF3FEF4FE75FE4C701B60152
:100B60000E941B0818161CF485E391E0B2CF2FEF0A
:100B70003FEF4FE75FECC701B6010E945B0687FDC0
:100B8000F3CF20E030E0A901C701B6010E945B0667
:100B900087FF54C06DE283E791E00E941002C70115
:100BA000B60190582AE037ED43EA5BE30E948007E4
:100BB0002B013C010E94EC074B015C010E94600686
:100BC0009B01AC01C301B2010E947F072B013C01D4
:100BD0004AE0C501B4010E948A026EE283E791E017
:100BE0000E94100220E030E040E251E4C301B20173
:100BF0000E94C1062B013C010E94EC074B01B12C65
:100C0000A12C4AE0C501B4010E948A02C501B401C9
:100C10000E9460069B01AC01C301B2010E947F07E4
:100C200020E030E040E251E40E94C1060E94EC075F
:100C300090E080E04AE00E948A024DCFC701B601F1
:100C4000B1CF89E391E00E94CE0260E087E00E948C
:100C5000870060E086E00E948700CDCEE3E7F1E008
:100C60001382128288EE93E0A0E0B0E08483958343
:100C7000A683B78384E091E09183808385EC90E044
:100C80009587848784EC90E09787868780EC90E056
:100C9000918B808B81EC90E0938B828B82EC90E047
:100CA000958B848B86EC90E0978B868B118E128EC1
:100CB000138E148E08950E949D0608F481E0089515
:100CC000E89409C097FB3EF49095809570956195E6
:100CD0007F4F8F4F9F4F9923A9F0F92F96E9BB279C
:100CE0009395F695879577956795B795F111F8CF18
:100CF000FAF4BB0F11F460FF1BC06F5F7F4F8F4F83
:100D00009F4F16C0882311F096E911C0772321F078
:100D10009EE8872F762F05C0662371F096E8862F10
:100D200070E060E02AF09A95660F771F881FDAF767
:100D3000880F9695879597F90895990F0008550F94
:100D4000AA0BE0E8FEEF16161706E807F907C0F051
:100D500012161306E407F50798F0621B730B840B59
:100D6000950B39F40A2661F0232B242B252B21F433
:100D700008950A2609F4A140A6958FEF811D811DD3
:100D800008950E94D4060C9445070E94370738F056
:100D90000E943E0720F0952311F00C942E070C942E
:100DA000340711240C9479070E94560770F3959F1D
:100DB000C1F3950F50E0551F629FF001729FBB2752
:100DC000F00DB11D639FAA27F00DB11DAA1F649FEE
:100DD0006627B00DA11D661F829F2227B00DA11DA1
:100DE000621F739FB00DA11D621F839FA00D611D27
:100DF000221F749F3327A00D611D231F849F600D48
:100E0000211D822F762F6A2F11249F5750409AF070
:100E1000F1F088234AF0EE0FFF1FBB1F661F771FFC
:100E2000881F91505040A9F79E3F510580F00C94C7
:100E30002E070C9479075F3FE4F3983ED4F3869530
:100E400077956795B795F795E7959F5FC1F7FE2B67
:100E5000880F911D9695879597F9089597F99F6743
:100E600080E870E060E008959FEF80EC0895002432
:100E70000A941616170618060906089500240A94FF
:100E800012161306140605060895092E0394000C85
:100E900011F4882352F0BB0F40F4BF2B11F460FF14
:100EA00004C06F5F7F4F8F4F9F4F089557FD90583D
:100EB000440F551F59F05F3F71F04795880F97FB1E
:100EC000991F61F09F3F79F08795089512161306D8
:100ED0001406551FF2CF4695F1DF08C01616170607
:100EE0001806991FF1CF869571056105089408953C
:100EF000E894BB2766277727CB0197F908955058C8
:100F0000BB27AA270E9497070C9445070E94370722
:100F100038F00E943E0720F039F49F3F19F426F480
:100F20000C9434070EF4E095E7FB0C942E07E92FA0
:100F30000E94560758F3BA1762077307840795078C
:100F400020F079F4A6F50C9478070EF4E0950B2EBA
:100F5000BA2FA02D0B01B90190010C01CA01A0010B
:100F60001124FF27591B99F0593F50F4503E68F166
:100F70001A16F040A22F232F342F4427585FF3CFA7
:100F8000469537952795A795F0405395C9F77EF478
:100F90001F16BA0B620B730B840BBAF09150A1F0C1
:100FA000FF0FBB1F661F771F881FC2F70EC0BA0F47
:100FB000621F731F841F48F4879577956795B795CF
:100FC000F7959E3F08F0B0CF9395880F08F09927CA
:100FD000EE0F9795879508950E945E0788F09F57BA
:100FE00098F0B92F9927B751B0F0E1F0660F771F4D
:100FF000881F991F1AF0BA95C9F714C0B13091F043
:101000000E947807B1E008950C947807672F782F35
:101010008827B85F39F0B93FCCF386957795679507
:10102000B395D9F73EF490958095709561957F4F73
:101030008F4F9F4F08950E949D0608F48FEF0895EB
:101040000E949D06880B990B0895A1E21A2EAA1BF7
:10105000BB1BFD010DC0AA1FBB1FEE1FFF1FA21768
:10106000B307E407F50720F0A21BB30BE40BF50B65
:10107000661F771F881F991F1A9469F760957095EE
:10108000809590959B01AC01BD01CF010895EE0FB5
:10109000FF1F0590F491E02D0994F894FFCF000014
:1010A0000000100270019D015D02CE01AC01C00183
:1010B0000D0A00457320756E2064696F646F207A95
:1010C000656E657200413A00433A006E616E0069D8
:1010D0006E66006F7666004E6F20657320756E2019
:1010E00064696F646F00457320756E2064696F6476
:1010F0006F005265616C697A616E646F206D656422
:081100006963696F6E657300FD
:107E0000112484B714BE81FFF0D085E080938100F7
:107E100082E08093C00088E18093C10086E0809377
:107E2000C20080E18093C4008EE0C9D0259A86E02C
:107E300020E33CEF91E0309385002093840096BBD3
:107E4000B09BFECF1D9AA8958150A9F7CC24DD24C4
:107E500088248394B5E0AB2EA1E19A2EF3E0BF2EE7
:107E6000A2D0813461F49FD0082FAFD0023811F036
:107E7000013811F484E001C083E08DD089C08234E0
:107E800011F484E103C0853419F485E0A6D080C0E4
:107E9000853579F488D0E82EFF2485D0082F10E0AE
:107EA000102F00270E291F29000F111F8ED06801E7
:107EB0006FC0863521F484E090D080E0DECF843638
:107EC00009F040C070D06FD0082F6DD080E0C81688
:107ED00080E7D80618F4F601B7BEE895C0E0D1E017
:107EE00062D089930C17E1F7F0E0CF16F0E7DF06D8
:107EF00018F0F601B7BEE89568D007B600FCFDCFD4
:107F0000A601A0E0B1E02C9130E011968C91119780
:107F100090E0982F8827822B932B1296FA010C0160
:107F200087BEE89511244E5F5F4FF1E0A038BF0790
:107F300051F7F601A7BEE89507B600FCFDCF97BE46
:107F4000E89526C08437B1F42ED02DD0F82E2BD052
:107F50003CD0F601EF2C8F010F5F1F4F84911BD097
:107F6000EA94F801C1F70894C11CD11CFA94CF0C13
:107F7000D11C0EC0853739F428D08EE10CD085E9AC
:107F80000AD08FE07ACF813511F488E018D01DD067
:107F900080E101D065CF982F8091C00085FFFCCF94
:107FA0009093C60008958091C00087FFFCCF809118
:107FB000C00084FD01C0A8958091C6000895E0E648
:107FC000F0E098E1908380830895EDDF803219F02E
:107FD00088E0F5DFFFCF84E1DECF1F93182FE3DFCA
:107FE0001150E9F7F2DF1F91089580E0E8DFEE27F6
:047FF000FF270994CA
:027FFE00040479
:00000001FF
