:020000040000FA
:100000000C9462000C948A000C948A000C948A0070
:100010000C948A000C948A000C948A000C948A0038
:100020000C948A000C948A000C948A000C948A0028
:100030000C948A000C948A000C948A000C948A0018
:100040000C94FA030C948A000C946A040C944404F3
:100050000C948A000C948A000C948A000C948A00F8
:100060000C948A000C948A000000000023002600F3
:10007000290000000000240027002A0000000000E2
:10008000250028002B0004040404040404040202D4
:100090000202020203030303030301020408102007
:1000A0004080010204081020010204081020000012
:1000B0000008000201000003040700000000000027
:1000C0000000530711241FBECFEFD8E0DEBFCDBF25
:1000D00022E0A6E7B1E001C01D92AE31B207E1F720
:1000E00011E0A0E0B1E0ECECF3E102C005900D926C
:1000F000A637B107D9F710E0C2E6D0E004C02197D7
:10010000FE010E94DE09C136D107C9F70E949C0496
:100110000C94E4090C940000833081F028F48130C1
:1001200099F08230A9F008958730A9F08830C9F09D
:100130008430B1F4809180008F7D03C08091800075
:100140008F7780938000089584B58F7784BD08955C
:1001500084B58F7DFBCF8091B0008F778093B00006
:1001600008958091B0008F7DF9CF1F93CF93DF93D7
:10017000282F30E0F901E255FF4F8491F901E6564E
:10018000FF4FD491F901EA57FF4FC491CC23A9F056
:10019000162F81110E948C00EC2FF0E0EE0FFF1F54
:1001A000E458FF4FA591B4918FB7F894EC911111D9
:1001B00008C0D095DE23DC938FBFDF91CF911F91D4
:1001C0000895DE2BF8CFCF93DF9390E0FC01E65645
:1001D000FF4F24918A579F4FFC0184918823D1F0CF
:1001E00090E0880F991FFC01EE58FF4FA591B49144
:1001F000FC01E458FF4FC591D49161110EC09FB727
:10020000F8948C91E22FE0958E238C932881E22341
:10021000E8839FBFDF91CF9108958FB7F894EC9159
:10022000E22BEC938FBFF6CF8E3008F08E508770A4
:10023000806480937C0080917A00806480937A004F
:1002400080917A0086FDFCCF8091780090917900B2
:1002500008953FB7F89480917D0190917E01A0911F
:100260007F01B091800126B5A89B05C02F3F19F0F2
:100270000196A11DB11D3FBFBA2FA92F982F882726
:10028000BC01CD01620F711D811D911D42E0660F01
:10029000771F881F991F4A95D1F708958F929F92D3
:1002A000AF92BF92CF92DF92EF92FF924B015C012F
:1002B0000E9429016B017C010E9429016C197D09B2
:1002C0008E099F09683E734081059105A8F321E0DE
:1002D000821A9108A108B10888EEC80E83E0D81EE2
:1002E000E11CF11C81149104A104B10429F7FF90D1
:1002F000EF90DF90CF90BF90AF909F908F90089538
:10030000AF92BF92CF92DF92EF92FF920F931F9323
:10031000CF93DF936C017B018B01040F151FEB0161
:100320005E01AE18BF08C017D10759F06991D60118
:10033000ED91FC910190F081E02DC6010995892B8A
:1003400079F7C501DF91CF911F910F91FF90EF9049
:10035000DF90CF90BF90AF900895FC01538D448DF6
:10036000252F30E0842F90E0821B930B541710F060
:10037000CF96089501970895FC01918D828D98176D
:1003800061F0A28DAE0FBF2FB11D5D968C91928D45
:100390009F5F9F73928F90E008958FEF9FEF089576
:1003A000FC01918D828D981731F0828DE80FF11D3F
:1003B000858D90E008958FEF9FEF0895FC01918D5A
:1003C000228D892F90E0805C9F4F821B91098F7353
:1003D0009927089581E891E00E94DE0121E0892BB0
:1003E00009F420E0822F089580E090E0892B29F025
:1003F0000E94EA0181110C9400000895FC01A48D73
:10040000A80FB92FB11DA35ABF4F2C91848D90E036
:1004100001968F739927848FA689B7892C93A08919
:10042000B1898C91837080648C93938D848D9813A3
:1004300006C00288F389E02D80818F7D8083089536
:10044000EF92FF920F931F93CF93DF93EC0181E024
:10045000888F9B8D8C8D98131AC0E889F9898081CB
:1004600085FF15C09FB7F894EE89FF896083E889FE
:10047000F98980818370806480839FBF81E090E0F0
:10048000DF91CF911F910F91FF90EF900895F62E7D
:100490000B8D10E00F5F1F4F0F731127E02E8C8D17
:1004A0008E110CC00FB607FCFACFE889F98980815C
:1004B00085FFF5CFCE010E94FE01F1CFEB8DEC0F51
:1004C000FD2FF11DE35AFF4FF0829FB7F8940B8F79
:1004D000EA89FB8980818062CFCFCF93DF93EC01E3
:1004E000888D8823B9F0AA89BB89E889F9898C911C
:1004F00085FD03C0808186FD0DC00FB607FCF7CFD8
:100500008C9185FFF2CF808185FFEDCFCE010E94D7
:10051000FE01E9CFDF91CF910895FC010190002009
:10052000E9F73197AF01481B590BBC0181E891E015
:100530000C9480018F929F92AF92BF920F931F9362
:10054000CF93DF93CDB7DEB7A1970FB6F894DEBF98
:100550000FBECDBF19A2423008F44AE08E010F5DF4
:100560001F4F842E912CB12CA12CA50194010E9427
:10057000BC09E62FB901CA01EA30F4F4E05DD80104
:10058000EE938D01232B242B252B79F790E080E02F
:10059000109719F0CD010E948D02A1960FB6F89424
:1005A000DEBF0FBECDBFDF91CF911F910F91BF90E6
:1005B000AF909F908F900895E95CE1CFCF93DF9348
:1005C0000E948D02EC0182E191E00E948D028C0F6D
:1005D0009D1FDF91CF910895CF92DF92EF92FF920E
:1005E000CF93DF936C01990FEE08FF08F7FE1FC051
:1005F0006DE281E891E00E942002EC0166277727F6
:10060000CB016C197D098E099F094AE00E949A026C
:10061000C80FD91F82E191E00E948D028C0F9D1FAF
:10062000DF91CF91FF90EF90DF90CF9008954AE057
:10063000C701B6010E949A02EC01ECCF4F925F9283
:100640006F927F928F929F92AF92BF92CF92DF92E2
:10065000EF92FF920F931F93CF936B017C01742E47
:10066000AC019B010E94B709882399F085E191E0D4
:10067000CF911F910F91FF90EF90DF90CF90BF909F
:10068000AF909F908F907F906F905F904F900C9461
:100690008D0246015701E894B7F82FEF3FEF4FE77F
:1006A0005FE7C501B4010E94B70981110DC02FEFAA
:1006B0003FEF4FE75FE7C501B4010E9480071816BE
:1006C0001CF489E191E0D4CF2FEF3FEF4FE75FE4D7
:1006D000C701B6010E94B20918161CF48DE191E021
:1006E000C7CF2FEF3FEF4FE75FECC701B6010E9486
:1006F000800787FDF3CF20E030E0A901C701B601F4
:100700000E94800710E000E087FF0AC06DE281E8E8
:1007100091E00E9420028C01F7FAF094F7F8F0942F
:10072000C0E060E070E080E09FE37C1641F020E0F4
:1007300030E040E251E40E941109CF5FF6CFA701FB
:1007400096010E94A5082B013C010E9483094B01E0
:100750005C014AE00E949A027C01E00EF11ECC236B
:10076000C1F1C501B4010E9485079B01AC01C30121
:10077000B2010E94A4084B015C016EE281E891E0A5
:100780000E942002E80EF91EC15018F120E030E06E
:1007900040E251E4C501B4010E94E6072B013C018F
:1007A0000E9483094B01B12CA12C4AE0C501B40180
:1007B0000E949A02E80EF91EC501B4010E94850745
:1007C0009B01AC01C301B2010E94A4084B015C0172
:1007D000DBCFC701CF911F910F91FF90EF90DF907A
:1007E000CF90BF90AF909F908F907F906F905F90D1
:1007F0004F9008951F920F920FB60F9211242F93CE
:100800003F938F939F93AF93BF9380917901909182
:100810007A01A0917B01B0917C013091780123E0B5
:10082000230F2D3758F50196A11DB11D2093780196
:100830008093790190937A01A0937B01B0937C011E
:1008400080917D0190917E01A0917F01B091800106
:100850000196A11DB11D80937D0190937E01A0930F
:100860007F01B0938001BF91AF919F918F913F9194
:100870002F910F900FBE0F901F90189526E8230F11
:100880000296A11DB11DD2CF1F920F920FB60F92EB
:1008900011242F933F934F935F936F937F938F9385
:1008A0009F93AF93BF93EF93FF9381E891E00E94F2
:1008B000FE01FF91EF91BF91AF919F918F917F9139
:1008C0006F915F914F913F912F910F900FBE0F90BD
:1008D0001F9018951F920F920FB60F9211242F930D
:1008E0008F939F93EF93FF93E0919101F091920189
:1008F0008081E0919701F091980182FD1BC0908169
:1009000080919A018F5F8F7320919B01821741F034
:10091000E0919A01F0E0EF57FE4F958F80939A0196
:10092000FF91EF919F918F912F910F900FBE0F909C
:100930001F9018958081F4CF789484B5826084BD2F
:1009400084B5816084BD85B5826085BD85B58160D3
:1009500085BD80916E00816080936E001092810051
:10096000809181008260809381008091810081600C
:1009700080938100809180008160809380008091CD
:10098000B10084608093B1008091B0008160809359
:10099000B00080917A00846080937A0080917A0020
:1009A000826080937A0080917A00816080937A00DF
:1009B00080917A00806880937A001092C10060E094
:1009C0008EE00E94E30060E08FE00E94E30060E0C0
:1009D00080E10E94E30061E087E00E94E30061E0C3
:1009E00086E00E94E30061E085E00E94E30060E0B1
:1009F00084E00E94E300E0919101F091920182E095
:100A00008083E0918D01F0918E011082E0918F0141
:100A1000F09190018FEC808310929901E091950103
:100A2000F091960186E08083E0919301F09194012A
:100A3000808180618083E0919301F09194018081B5
:100A400088608083E0919301F091940180818068B7
:100A50008083E0919301F091940180818F7D808368
:100A600092EB892E90E0992ECEE9D0E00AE810E0D2
:100A700020E0A22E20E0B22EF4018491FE01E49049
:100A8000F801F490FF2009F449C081110E948C0004
:100A9000EF2DF0E0EE0FFF1FE859FF4FA591B49145
:100AA0008C91E82291E080E009F490E0E92EF82EA4
:100AB000C7010E94EC02EA94EF2859F48091760174
:100AC000909177018530910561F510927701109230
:100AD000760180917601909177010E94EC028091DD
:100AE000760190917701009711F1019709F478C18F
:100AF00080E691E00E94DE0268EE73E080E090E024
:100B00000E944E01A114B10409F4B6CF0E94EA017B
:100B1000882309F4B1CF0E940000AECFF12CE12C64
:100B2000C7CF01969093770180937601D2CF61E091
:100B300087E00E94B50060E086E00E94B50065E0B5
:100B400070E080E090E00E944E018EE00E9414016F
:100B50007C018FE00E941401BC01990F880B990B56
:100B60000E9487072AE038E240EA5BE30E94E6073A
:100B70002B013C01B701FF0C880B990B0E948707E2
:100B80002AE038E240EA5BE30E94E6079B01AC0101
:100B9000C301B2010E94A4086B017C0120E030E097
:100BA000A9010E94B209181624F0F7FAF094F7F898
:100BB000F09420E030E040E250E4C701B6010E942A
:100BC000B2091816ECF426E636E646E950E4C70109
:100BD000B6010E94800787FF13C081E291E00E9466
:100BE000DE0283E391E00E948D028EE090E00E949D
:100BF000EC0286E391E00E948D028FE090E069C0F4
:100C000060E087E00E94B50061E086E00E94B500E8
:100C100065E070E080E090E00E944E018EE00E946E
:100C200014017C018FE00E9414016C01B701FF0CDC
:100C3000880B990B0E9487072AE038E240EA5BE3C1
:100C40000E94E6072B013C01B601DD0C880B990BD5
:100C50000E9487072AE038E240EA5BE30E94E60749
:100C60009B01AC01C301B2010E94A4086B017C018D
:100C700020E030E0A9010E94B209181624F0F7FA2A
:100C8000F094F7F8F09420E030E040E250E4C7013F
:100C9000B6010E94B2091816FCF426E636E646E9CB
:100CA00050E4C701B6010E94800787FF15C081E2AA
:100CB00091E00E94DE0283E391E00E948D028FE0CA
:100CC00090E00E94EC0286E391E00E948D028EE0AB
:100CD00090E00E94EC020CCF68EE73E080E090E0C0
:100CE0000E944E012AE939E949E15FE3C701B601F3
:100CF0000E94B209181654F42DEC3CEC4CE45FE36E
:100D0000C701B6010E94800787FD6BCF61E087E0D5
:100D10000E94B50060E086E00E94B50065E070E0EA
:100D200080E090E00E944E018EE00E9414017C0160
:100D30008FE00E941401BC01990F880B990B0E944F
:100D400087072AE038E240EA5BE30E94E6072B01CE
:100D50003C01B701FF0C880B990B0E9487072AE022
:100D600038E240EA5BE30E94E6079B01AC01C30165
:100D7000B2010E94A4086B017C0142E00E941E03A4
:100D800082E191E00E948D022AE939E949E15FE3BD
:100D9000C701B6010E94B2091816ACF42DEC3CEC68
:100DA0004CE45FE3C701B6010E94800787FF0BC0D8
:100DB00086E391E00E948D028EE090E00E94EC02BA
:100DC00083E391E018CF89E391E00E94DE0260E0C6
:100DD00087E00E94B50060E086E00E94B50088CE02
:100DE00060E087E00E94B50061E086E00E94B50007
:100DF00065E070E080E090E00E944E018EE00E948D
:100E00001401BC01990F880B990B0E9487072AE0F7
:100E100038E240EA5BE30E94E6076B017C0120E0D8
:100E200030E0A9010E94B209181624F0F7FAF094F4
:100E3000F7F8F09442E0C701B6010E941E0382E178
:100E400091E00E948D0220E030E04AEF54E4C701B7
:100E5000B6010E94E6079B01AC0160E070E48CE9FA
:100E600095E40E94A4082B013C0120E030E040EA18
:100E700050E4C701B6010E94A4089B01AC01C30164
:100E8000B2010E9411096B017C0188E491E00E948B
:100E90008D0242E0C701B6010E941E038DE591E07C
:100EA0000E94DE0225CEE1E8F1E01382128288EE94
:100EB00093E0A0E0B0E084839583A683B78384E0C9
:100EC00091E09183808385EC90E09587848784EC22
:100ED00090E09787868780EC90E0918B808B81EC07
:100EE00090E0938B828B82EC90E0958B848B86ECE8
:100EF00090E0978B868B118E128E138E148E089530
:100F00000E94C20708F481E00895E89409C097FBA5
:100F10003EF490958095709561957F4F8F4F9F4FD0
:100F20009923A9F0F92F96E9BB279395F695879514
:100F300077956795B795F111F8CFFAF4BB0F11F4D7
:100F400060FF1BC06F5F7F4F8F4F9F4F16C088237E
:100F500011F096E911C0772321F09EE8872F762FB4
:100F600005C0662371F096E8862F70E060E02AF0F5
:100F70009A95660F771F881FDAF7880F96958795E1
:100F800097F90895990F0008550FAA0BE0E8FEEFB6
:100F900016161706E807F907C0F012161306E4073D
:100FA000F50798F0621B730B840B950B39F40A2636
:100FB00061F0232B242B252B21F408950A2609F414
:100FC000A140A6958FEF811D811D08950E94F9070C
:100FD0000C946A080E945C0838F00E94630820F0B4
:100FE000952311F00C9453080C94590811240C9477
:100FF0009E080E947B0870F3959FC1F3950F50E007
:10100000551F629FF001729FBB27F00DB11D639FBA
:10101000AA27F00DB11DAA1F649F6627B00DA11D60
:10102000661F829F2227B00DA11D621F739FB00D06
:10103000A11D621F839FA00D611D221F749F332776
:10104000A00D611D231F849F600D211D822F762F0F
:101050006A2F11249F5750409AF0F1F088234AF0EC
:10106000EE0FFF1FBB1F661F771F881F9150504058
:10107000A9F79E3F510580F00C9453080C949E08EC
:101080005F3FE4F3983ED4F3869577956795B795DF
:10109000F795E7959F5FC1F7FE2B880F911D9695F9
:1010A000879597F9089597F99F6780E870E060E069
:1010B00008959FEF80EC089500240A9416161706F1
:1010C00018060906089500240A9412161306140639
:1010D00005060895092E0394000C11F4882352F09C
:1010E000BB0F40F4BF2B11F460FF04C06F5F7F4F54
:1010F0008F4F9F4F089557FD9058440F551F59F03B
:101100005F3F71F04795880F97FB991F61F09F3FF4
:1011100079F087950895121613061406551FF2CF1D
:101120004695F1DF08C0161617061806991FF1CF6D
:1011300086957105610508940895E894BB27662794
:101140007727CB0197F908955058BB27AA270E940B
:10115000BC080C946A080E945C0838F00E9463087E
:1011600020F039F49F3F19F426F40C9459080EF43A
:10117000E095E7FB0C945308E92F0E947B0858F395
:10118000BA17620773078407950720F079F4A6F56C
:101190000C949D080EF4E0950B2EBA2FA02D0B0198
:1011A000B90190010C01CA01A0011124FF27591BAC
:1011B00099F0593F50F4503E68F11A16F040A22FB2
:1011C000232F342F4427585FF3CF46953795279523
:1011D000A795F0405395C9F77EF41F16BA0B620B22
:1011E000730B840BBAF09150A1F0FF0FBB1F661F69
:1011F000771F881FC2F70EC0BA0F621F731F841FAC
:1012000048F4879577956795B795F7959E3F08F0D1
:10121000B0CF9395880F08F09927EE0F9795879593
:1012200008950E9425090C946A080E94630858F0EA
:101230000E945C0840F029F45F3F29F00C945308A9
:1012400051110C949E080C9459080E947B0868F375
:101250009923B1F3552391F3951B550BBB27AA276F
:1012600062177307840738F09F5F5F4F220F331FA9
:10127000441FAA1FA9F335D00E2E3AF0E0E832D071
:1012800091505040E695001CCAF72BD0FE2F29D074
:10129000660F771F881FBB1F261737074807AB0746
:1012A000B0E809F0BB0B802DBF01FF2793585F4FBB
:1012B0003AF09E3F510578F00C9453080C949E0828
:1012C0005F3FE4F3983ED4F3869577956795B7959D
:1012D000F7959F5FC9F7880F911D9695879597F9A8
:1012E0000895E1E0660F771F881FBB1F6217730721
:1012F0008407BA0720F0621B730B840BBA0BEE1F36
:1013000088F7E09508950E94830888F09F5798F029
:10131000B92F9927B751B0F0E1F0660F771F881FFA
:10132000991F1AF0BA95C9F714C0B13091F00E9414
:101330009D08B1E008950C949D08672F782F8827A9
:10134000B85F39F0B93FCCF3869577956795B3953B
:10135000D9F73EF490958095709561957F4F8F4FAA
:101360009F4F08950E94C20708F48FEF08950E94CE
:10137000C207880B990B0895A1E21A2EAA1BBB1B6A
:10138000FD010DC0AA1FBB1FEE1FFF1FA217B30751
:10139000E407F50720F0A21BB30BE40BF50B661F67
:1013A000771F881F991F1A9469F76095709580952B
:1013B00090959B01AC01BD01CF010895EE0FFF1F79
:1013C0000590F491E02D0994F894FFCF00000000FF
:1013D00020028001AD016D02DE01BC01D0010D0AC9
:1013E000006E616E00696E66006F76660045732060
:1013F000756E2064696F646F207A656E6572004156
:101400003A00433A004E6F20657320756E20646980
:101410006F646F00526573697374656E63696120F0
:101420006D65646964613A2000CEA9005265616C03
:10143000697A616E646F206D65646963696F6E655A
:02144000730037
:107E0000112484B714BE81FFF0D085E080938100F7
:107E100082E08093C00088E18093C10086E0809377
:107E2000C20080E18093C4008EE0C9D0259A86E02C
:107E300020E33CEF91E0309385002093840096BBD3
:107E4000B09BFECF1D9AA8958150A9F7CC24DD24C4
:107E500088248394B5E0AB2EA1E19A2EF3E0BF2EE7
:107E6000A2D0813461F49FD0082FAFD0023811F036
:107E7000013811F484E001C083E08DD089C08234E0
:107E800011F484E103C0853419F485E0A6D080C0E4
:107E9000853579F488D0E82EFF2485D0082F10E0AE
:107EA000102F00270E291F29000F111F8ED06801E7
:107EB0006FC0863521F484E090D080E0DECF843638
:107EC00009F040C070D06FD0082F6DD080E0C81688
:107ED00080E7D80618F4F601B7BEE895C0E0D1E017
:107EE00062D089930C17E1F7F0E0CF16F0E7DF06D8
:107EF00018F0F601B7BEE89568D007B600FCFDCFD4
:107F0000A601A0E0B1E02C9130E011968C91119780
:107F100090E0982F8827822B932B1296FA010C0160
:107F200087BEE89511244E5F5F4FF1E0A038BF0790
:107F300051F7F601A7BEE89507B600FCFDCF97BE46
:107F4000E89526C08437B1F42ED02DD0F82E2BD052
:107F50003CD0F601EF2C8F010F5F1F4F84911BD097
:107F6000EA94F801C1F70894C11CD11CFA94CF0C13
:107F7000D11C0EC0853739F428D08EE10CD085E9AC
:107F80000AD08FE07ACF813511F488E018D01DD067
:107F900080E101D065CF982F8091C00085FFFCCF94
:107FA0009093C60008958091C00087FFFCCF809118
:107FB000C00084FD01C0A8958091C6000895E0E648
:107FC000F0E098E1908380830895EDDF803219F02E
:107FD00088E0F5DFFFCF84E1DECF1F93182FE3DFCA
:107FE0001150E9F7F2DF1F91089580E0E8DFEE27F6
:047FF000FF270994CA
:027FFE00040479
:00000001FF
