:020000040000FA
:100000000C9462000C948A000C948A000C948A0070
:100010000C948A000C948A000C948A000C948A0038
:100020000C948A000C948A000C948A000C948A0028
:100030000C948A000C948A000C948A000C948A0018
:100040000C948B060C948A000C94FB060C94D50639
:100050000C948A000C948A000C948A000C948A00F8
:100060000C942D070C948A00000000002300260049
:10007000290000000000240027002A0000000000E2
:10008000250028002B0004040404040404040202D4
:100090000202020203030303030301020408102007
:1000A0004080010204081020010204081020000012
:1000B0000008000201000003040700000000000027
:1000C00000004C0811241FBECFEFD8E0DEBFCDBF2B
:1000D00024E0A2EBB2E001C01D92AC33B207E1F71D
:1000E00012E0A0E0B1E0E6ECF4E202C005900D926F
:1000F000A23BB107D9F710E0C2E6D0E004C02197D7
:10010000FE010E945B12C136D107C9F70E94940814
:100110000C9461120C940000833081F028F481303B
:1001200099F08230A9F008958730A9F08830C9F09D
:100130008430B1F4809180008F7D03C08091800075
:100140008F7780938000089584B58F7784BD08955C
:1001500084B58F7DFBCF8091B0008F778093B00006
:1001600008958091B0008F7DF9CF1F93CF93DF93D7
:10017000282F30E0F901E255FF4F8491F901E6564E
:10018000FF4FD491F901EA57FF4FC491CC23A9F056
:10019000162F81110E948C00EC2FF0E0EE0FFF1F54
:1001A000E458FF4FA591B4918FB7F894EC911111D9
:1001B00008C0D095DE23DC938FBFDF91CF911F91D4
:1001C0000895DE2BF8CFCF93DF9390E0FC01E65645
:1001D000FF4F24918A579F4FFC0184918823D1F0CF
:1001E00090E0880F991FFC01EE58FF4FA591B49144
:1001F000FC01E458FF4FC591D49161110EC09FB727
:10020000F8948C91E22FE0958E238C932881E22341
:10021000E8839FBFDF91CF9108958FB7F894EC9159
:10022000E22BEC938FBFF6CF8E3008F08E508770A4
:10023000806480937C0080917A00806480937A004F
:1002400080917A0086FDFCCF8091780090917900B2
:1002500008953FB7F8948091830390918403A0910F
:100260008503B091860326B5A89B05C02F3F19F0E2
:100270000196A11DB11D3FBFBA2FA92F982F882726
:10028000BC01CD01620F711D811D911D42E0660F01
:10029000771F881F991F4A95D1F708958F929F92D3
:1002A000AF92BF92CF92DF92EF92FF924B015C012F
:1002B0000E9429016B017C010E9429016C197D09B2
:1002C0008E099F09683E734081059105A8F321E0DE
:1002D000821A9108A108B10888EEC80E83E0D81EE2
:1002E000E11CF11C81149104A104B10429F7FF90D1
:1002F000EF90DF90CF90BF90AF909F908F90089538
:1003000008950895AF92BF92CF92DF92EF92FF923D
:100310000F931F93CF93DF936C017B018B01040F2D
:10032000151FEB015E01AE18BF08C017D10759F0C9
:100330006991D601ED91FC910190F081E02DC6010B
:100340000995892B79F7C501DF91CF911F910F9105
:10035000FF90EF90DF90CF90BF90AF900895FC0199
:10036000538D448D252F30E0842F90E0821B930B1A
:10037000541710F0CF96089501970895FC01918DC0
:10038000828D981761F0A28DAE0FBF2FB11D5D96C3
:100390008C91928D9F5F9F73928F90E008958FEF65
:1003A0009FEF0895FC01918D828D981731F0828D19
:1003B000E80FF11D858D90E008958FEF9FEF089570
:1003C000FC01918D228D892F90E0805C9F4F821BD4
:1003D00091098F739927089587E893E00E94E001BF
:1003E00021E0892B09F420E0822F089580E090E03D
:1003F000892B29F00E94EC0181110C9400000895D2
:10040000FC01A48DA80FB92FB11DA35ABF4F2C9189
:10041000848D90E001968F739927848FA689B78980
:100420002C93A089B1898C91837080648C93938D77
:10043000848D981306C00288F389E02D80818F7D1A
:1004400080830895EF92FF920F931F93CF93DF93D2
:10045000EC0181E0888F9B8D8C8D98131AC0E88900
:10046000F989808185FF15C09FB7F894EE89FF89CF
:100470006083E889F98980818370806480839FBF6D
:1004800081E090E0DF91CF911F910F91FF90EF906D
:100490000895F62E0B8D10E00F5F1F4F0F7311277D
:1004A000E02E8C8D8E110CC00FB607FCFACFE889B8
:1004B000F989808185FFF5CFCE010E940002F1CF3E
:1004C000EB8DEC0FFD2FF11DE35AFF4FF0829FB72C
:1004D000F8940B8FEA89FB8980818062CFCFCF931C
:1004E000DF93EC01888D8823B9F0AA89BB89E8895C
:1004F000F9898C9185FD03C0808186FD0DC00FB602
:1005000007FCF7CF8C9185FFF2CF808185FFEDCF7F
:10051000CE010E940002E9CFDF91CF9108950895A6
:100520002091F302260F3327331F21323105ECF4DB
:1005300020913C03FC0190E080E0243069F082E0EF
:100540000895A091F3022191AC014D525D4FA40F8B
:10055000B52FB11D2C930196861798F38091F30265
:10056000680F6093F30280E0089581E0089510928F
:100570003C0381E080933B031092160361E082E12B
:100580000E94B50061E083E10E94B500E9EBF0E074
:1005900080818E7F808380818D7F808388E48093BB
:1005A000B80085E48093BC000895CF93DF9391E079
:1005B0009093D2028823B9F0C091B800D091BA00CC
:1005C0008091BC008A7B8093BC0060E082E10E9445
:1005D000B50060E083E10E94B5000E94B702D093AD
:1005E000BA00C093B800DF91CF9108950895E091CB
:1005F0006B0380916A03E81730F4F0E0EE54FD4F8E
:10060000808190E008958FEF9FEF089590916B03A4
:1006100080916A032FEF3FEF981748F4E92FF0E03D
:10062000EE54FD4F208130E09F5F90936B03C90132
:10063000089580916A0390916B03891B990B08952B
:10064000CF92DF92EF92FF920F931F93CF93DF939E
:100650007C01CB018A0120914203222389F0EB0126
:100660006B01C40ED51ECC15DD0569F06991D7016B
:10067000ED91FC910190F081E02DC7010995F3CF38
:10068000642F0E949002C801DF91CF911F910F91BA
:10069000FF90EF90DF90CF900895CF93DF931F925C
:1006A000CDB7DEB76983209142032223F9F0209170
:1006B0006803203258F021E030E0FC0133832283CC
:1006C00090E080E00F90DF91CF91089580916903D1
:1006D000E82FF0E0ED5BFC4F998190838F5F809372
:1006E00069038093680381E090E0ECCF61E0CE0184
:1006F00001960E949002F7CFCF92DF92EF92FF9285
:100700000F931F93CF93DF93FC01C48121E02093CB
:100710004203C093630310926903109268038385B8
:10072000682B84E294E00E944D03D0916803D1329B
:1007300008F092C00E9429016B017C0180913C036A
:10074000811165C082E080933C0381E080933B038C
:100750008FEF80933A0310923903D0933803A3E4C8
:10076000B3E0E8E1F3E080E0D81385C0109217030E
:1007700080911703CC0FC82BC093170380911603E9
:10078000813009F07CC0109216030E9429016B0190
:100790007C01809117038093BB0080913E03909170
:1007A0003F03A0914003B0914103892B8A2B8B2BEF
:1007B00099F00E94290100913E0310913F0320917E
:1007C0004003309141036C197D098E099F0906177A
:1007D000170728073907E0F18091BC0083FDD9CFC6
:1007E00085EC8093BC000E9429016B017C01809103
:1007F0003C03823009F445C080913A038F3F61F198
:1008000080913A03803241F180913A0325C0809172
:100810003E0390913F03A0914003B0914103892B87
:100820008A2B8B2B09F48ACF0E94290100913E0369
:1008300010913F0320914003309141036C197D09D1
:100840008E099F09061717072807390708F076CF82
:1008500080913D030E94D5021092690310926803B3
:1008600010924203DF91CF911F910F91FF90EF9073
:10087000DF90CF9008959D9191938F5F75CF85EE16
:10088000B0CF80913E0390913F03A0914003B0917F
:100890004103892B8A2B8B2B09F4A9CF0E942901B4
:1008A00000913E0310913F0320914003309141039A
:1008B0006C197D098E099F09061717072807390744
:1008C00008F095CFC5CF90E080E008950F931F9377
:1008D000CF938C01C62F0E947C036C2F6460C801EB
:1008E0000E947C036C2F6B7FC8010E947C0383EC09
:1008F00090E00197F1F7CF911F910F9108950F9319
:100900001F93CF93DF938C01D62FC42F607F642B6E
:100910000E94660480E1D89FB00111246C2BC801AD
:10092000DF91CF911F910F910C94660441E00E94DA
:100930007F0481E090E00895CF93DF93CDB7DEB7D9
:1009400028970FB6F894DEBF0FBECDBF88E0E0E079
:10095000F1E0DE01119601900D928A95E1F7809108
:10096000380481111AC08FEF90E0880F991F21E0A1
:1009700030E02C0F3D1F820F931FFC0160816068E7
:1009800040E080E394E028960FB6F894DEBF0FBEF7
:10099000CDBFDF91CF910C947F0481E0E5CF40E0A3
:1009A00061E080E394E00E947F048BE39FE1019784
:1009B000F1F70895FB0101900020E9F73197AF01AD
:1009C000461B570BDC01ED91FC910280F381E02D79
:1009D00009948F929F92AF92BF92EF92FF920F93E2
:1009E0001F93CF93DF93CDB7DEB7A1970FB6F894DF
:1009F000DEBF0FBECDBF7C01FA01CB0119A22230B0
:100A000008F42AE08E010F5D1F4F822E912CB12C2D
:100A1000A12CBF01A50194010E943912F901CA015C
:100A20006A300CF5605DD8016E938D01232B242B69
:100A3000252B79F790E080E0109721F0BD01C701E8
:100A40000E94DA04A1960FB6F894DEBF0FBECDBFA8
:100A5000DF91CF911F910F91FF90EF90BF90AF90DA
:100A60009F908F900895695CDECFCF92DF92EF92D6
:100A7000FF920F931F93CF93DF936B01770FEE08D5
:100A8000FF08F7FE1FC0EC01E881F9810190F081B9
:100A9000E02D6DE209958C0144275527BA014C19C8
:100AA0005D096E097F092AE0CE010E94E904800FEA
:100AB000911FDF91CF911F910F91FF90EF90DF90E9
:100AC000CF9008952AE0B701A601DF91CF911F9141
:100AD0000F91FF90EF90DF90CF900C94E904BC0150
:100AE00080E394E00C94DA044F925F926F927F92CD
:100AF0008F929F92AF92BF92CF92DF92EF92FF922E
:100B0000CF93DF936B017C01AC019B010E943412F7
:100B100068E371E0811126C046015701E894B7F8F7
:100B20002FEF3FEF4FE75FE7C501B4010E9434129A
:100B300081110CC02FEF3FEF4FE75FE7C501B40114
:100B40000E94FD0F6CE371E0181664F02FEF3FEF89
:100B50004FE75FE4C701B6010E942F121816A4F4F4
:100B600060E471E080E394E0DF91CF91FF90EF903B
:100B7000DF90CF90BF90AF909F908F907F906F90BD
:100B80005F904F900C94DA042FEF3FEF4FE75FEC4C
:100B9000C701B6010E94FD0F87FDE2CF20E030E0E3
:100BA000A901C701B6010E94FD0FD0E0C0E087FF98
:100BB0000CC041E06DE280E394E00E947F04F7FA0C
:100BC000F094F7F8F094C1E0D0E02AE037ED43EA82
:100BD0005BE3C701B6010E9422114B015C010E9438
:100BE00000126B017C010E9402109B01AC01C50147
:100BF000B4010E9421114B015C012AE0B701A6015A
:100C000080E394E00E94E9047C01EC0EFD1E41E0CB
:100C10006EE280E394E00E947F048FEFE81AF80A06
:100C200020E030E040E251E4C501B4010E946310CD
:100C30002B013C010E9400124B01B12CA12C2AE097
:100C4000B501A40180E394E00E94E904E80EF91ED6
:100C5000C501B4010E9402109B01AC01C301B201A5
:100C60000E94211120E030E040E251E40E94631034
:100C70000E940012AB0170E060E02AE080E394E0A3
:100C80000E94E9048E0D9F1DDF91CF91FF90EF90A0
:100C9000DF90CF90BF90AF909F908F907F906F909C
:100CA0005F904F90089585ED8093BC0080913E0346
:100CB00090913F03A0914003B09141030796A11D7D
:100CC000B11D23E0B695A795979587952A95D1F7FD
:100CD0002091BC0024FD03C010923C030895409174
:100CE0003E0350913F036091400370914103452BB7
:100CF000462B472B69F30097A105B10541F02AE285
:100D00002A95F1F700C00197A109B109E1CF8091BF
:100D10003D030C94D5021F920F920FB60F9211242F
:100D20002F933F938F939F93AF93BF9380917F03B4
:100D300090918003A0918103B091820330917E0352
:100D400023E0230F2D3758F50196A11DB11D2093E7
:100D50007E0380937F0390938003A0938103B093DD
:100D600082038091830390918403A0918503B091C5
:100D700086030196A11DB11D809383039093840384
:100D8000A0938503B0938603BF91AF919F918F91FC
:100D90003F912F910F900FBE0F901F90189526E84E
:100DA000230F0296A11DB11DD2CF1F920F920FB635
:100DB0000F9211242F933F934F935F936F937F93E1
:100DC0008F939F93AF93BF93EF93FF9387E893E045
:100DD0000E940002FF91EF91BF91AF919F918F917F
:100DE0007F916F915F914F913F912F910F900FBE27
:100DF0000F901F9018951F920F920FB60F9211240B
:100E00002F938F939F93EF93FF93E0919703F0912C
:100E100098038081E0919D03F0919E0382FD1BC0A9
:100E200090818091A0038F5F8F732091A10382171F
:100E300041F0E091A003F0E0E957FC4F958F8093DB
:100E4000A003FF91EF919F918F912F910F900FBE73
:100E50000F901F9018958081F4CF1F920F920FB6BC
:100E60000F9211242F933F934F935F936F937F9330
:100E70008F939F93AF93BF93EF93FF938091B900AC
:100E8000887F803609F44AC0F0F5883209F4A7C09B
:100E900018F5803109F49BC0B8F4882309F4F9C02F
:100EA000883009F494C0FF91EF91BF91AF919F9169
:100EB0008F917F916F915F914F913F912F910F9003
:100EC0000FBE0F901F901895883109F488C08032AA
:100ED00051F780933A0314C0803409F49DC040F464
:100EE0008033B9F38833F9F680933A0385ECB0C0C8
:100EF000803509F485C0883509F496C0883499F6A0
:100F00000E945306D0CF883909F48CC038F5883751
:100F100029F050F4883611F0803729F683E0809369
:100F20003C031092150357C0883809F47BC0803900
:100F300019F0803809F0B7CF80911503803208F09E
:100F400071C0E091150381E08E0F809315038091AD
:100F5000BB00F0E0EB50FD4F80833DC0803B39F09B
:100F6000E0F4803A09F479C0883A09F09CCF84E033
:100F700080933C031092F4021092F302E091660316
:100F8000F091670309958091F30281110FC081E010
:100F90008093F3021092D30209C0803C09F4A6CFDB
:100FA000883C09F4A3CF883B09F07DCFE091F4029F
:100FB00081E08E0F8093F402F0E0ED52FD4F8081CE
:100FC0008093BB009091F4028091F30229C080913C
:100FD00017038093BB0085EC8093BC0064CF909195
:100FE000390380913803981758F5E091390381E06F
:100FF0008E0F80933903F0E0E85EFC4F8081E9CFEB
:10100000E091390381E08E0F809339038091BB001A
:10101000F0E0E85EFC4F80839091390380913803C3
:101020009817C8F285E8D8CFE091390381E08E0F98
:10103000809339038091BB00F0E0E85EFC4F808331
:1010400080913B0381115CCF81E08093160384EA99
:101050008093BC0010923C0326CF85EC8093BC00AB
:1010600010923C0380911503803230F4E091150317
:10107000F0E0EB50FD4F10826091150370E0E091BD
:101080006403F091650385EF92E0099510921503D2
:101090000ACF10923A0334CFE7E8F3E013821282CA
:1010A00088EE93E0A0E0B0E084839583A683B783C5
:1010B0002CE031E03183208325EC30E03587248734
:1010C00024EC30E03787268720EC30E0318B208B12
:1010D00021EC30E0338B228B22EC30E0358B248BFB
:1010E00026EC30E0378B268B118E128E138E148EE9
:1010F000E4E2F4E01382128284839583A683B783AB
:101100008EE191E091838083E0E3F4E01382128228
:1011100080E391E0918380838FE3848380E1818702
:1011200082E0828713860895789484B5826084BDB6
:1011300084B5816084BD85B5826085BD85B58160DB
:1011400085BD80916E00816080936E001092810059
:101150008091810082608093810080918100816014
:1011600080938100809180008160809380008091D5
:10117000B10084608093B1008091B0008160809361
:10118000B00080917A00846080937A0080917A0028
:10119000826080937A0080917A00816080937A00E7
:1011A00080917A00806880937A001092C10060E09C
:1011B0008EE00E94E30060E08FE00E94E30060E0C8
:1011C00080E10E94E30061E087E00E94E30061E0CB
:1011D00086E00E94E30061E085E00E94E30060E0B9
:1011E00084E00E94E30010926B0310926A03109255
:1011F0006903109268030E94B70280E891E090931F
:1012000067038093660381E891E090936503809380
:1012100064031092350480913A04823018F098E00B
:10122000909335048093380462E370E080E090E0AE
:101230000E944E0160913B0480E394E00E947C0395
:1012400068EE73E080E090E00E944E0160E380E38E
:1012500094E00E946604CBE4D6E4CE010197F1F756
:1012600060E380E394E00E9466042197F1F760E375
:1012700080E394E00E94660483E592E00197F1F731
:1012800060E280E394E00E9466046091350460624D
:1012900040E080E394E00E947F0484E08093360481
:1012A00040E06CE080E394E00E947F040E94CF0461
:1012B000C2E0C093370440E066E080E394E00E941F
:1012C0007F0440E062E080E394E00E947F048BE3CF
:1012D0009FE10197F1F788E080933B0460E080E3B1
:1012E00094E00E947C0384E491E00E946F050E94D8
:1012F0009C048BE591E00E946F05E0919703F091CB
:101300009803C083E0919303F09194031082E091DD
:101310009503F09196038FEC808310929F03E091E8
:101320009B03F0919C0386E08083E0919903F09108
:101330009A03808180618083E0919903F0919A0300
:10134000808188608083E0919903F0919A03808185
:1013500080688083E0919903F0919A0380818F7D6A
:1013600080839AE8292E90E0392E00E010E0E2EB2D
:10137000F0E08491EEE9F0E0D491F101C491CC2346
:10138000C9F081110E948C00EC2FF0E0EE0FFF1FDE
:10139000E859FF4FA591B4918C91D82359F08091D1
:1013A0007C0390917D0385309105E1F510927D03DA
:1013B00010927C0360917C0370917D0387E893E039
:1013C0000E9435056AE671E087E893E00E94DA043E
:1013D00080917C0390917D038130910509F4BAC21C
:1013E0003CF5892B09F4F0C06BE972E087E893E0E3
:1013F0000E94DA046AE671E087E893E00E94DA046A
:1014000068EE73E080E090E00E944E010115110546
:1014100009F4ADCF0E94EC01882309F4A8CF0E9403
:101420000000A5CF019690937D0380937C03C2CFEB
:101430008230910509F4F2C20397B1F60E94CF04FD
:10144000D0E0C0E0C130D10509F4D8C3C230D10525
:1014500009F4D4C461E087E00E94B50060E086E052
:101460000E94E30060E085E00E94B5008EE00E94EB
:101470001401BC01990F880B990B0E940410609312
:1014800078037093790380937A0390937B0320E031
:1014900030E040EA5BE30E9463104B015C01809204
:1014A000740390927503A0927603B09277038FE055
:1014B0000E941401BC01990F880B990B0E94041023
:1014C00020E030E040EA5BE30E9463106B017C01A6
:1014D000C0927003D0927103E0927203F092730392
:1014E00080E10E941401BC01990F880B990B0E94A6
:1014F000041020E030E040EA5BE30E9463102B011F
:101500003C0140926C0350926D0360926E037092A6
:101510006F03A7019601C501B4010E9421116B015F
:101520007C01A3019201C501B4010E9421114B016C
:101530005C012AE939E949E15FE3C701B6010E948C
:101540002F1218160CF0E9C226E636E646E65FE3EF
:10155000C701B6010E94FD0F87FFDFC289ED91E050
:101560000E946F050E949C0420E030E0A901C701A1
:10157000B6010E942F12181624F0F7FAF094F7F82B
:10158000F09420E030E0A901C501B4010E942F12BF
:10159000181624F0B7FAB094B7F8B094A5019401E6
:1015A000C701B6010E942F1218160CF089C284E000
:1015B00092E00E946F0520916C0330916D03409181
:1015C0006E0350916F0388C261E087E00E94B5000E
:1015D00060E086E00E94B50065E070E080E090E0A9
:1015E0000E944E018EE00E941401BC01990F880BED
:1015F000990B0E9404106B017C01C0927803D09279
:101600007903E0927A03F0927B038FE00E94140149
:10161000EC0120E030E040EA5BE3C701B6010E9444
:1016200063106B017C01C0927403D0927503E09249
:101630007603F0927703BE01DD0F880B990B0E94B1
:10164000041020E030E040EA5BE30E946310609306
:101650007003709371038093720390937303A701D7
:1016600096010E9421116B017C0120E030E0A9016C
:101670000E942F12181624F0F7FAF094F7F8F0945D
:1016800020E030E040E050E4C701B6010E942F1294
:1016900018167CF526E636E646E950E4C701B601A1
:1016A0000E94FD0F87FF25C00E94CF048DE691E0C8
:1016B0000E946F050E949C0489E791E00E946F05DB
:1016C0006EE070E080E394E00E9435058CE791E0E5
:1016D0000E946F056FE070E080E394E00E943505A2
:1016E0008FE791E00E946F05C701B6010E94740563
:1016F0007BCE60E087E00E94B50061E086E00E945A
:10170000B50065E070E080E090E00E944E018EE060
:101710000E941401BC01990F880B990B0E940410C0
:101720006B017C01C0927803D0927903E0927A0336
:10173000F0927B038FE00E941401EC0120E030E086
:1017400040EA5BE3C701B6010E9463106B017C01B4
:10175000C0927403D0927503E0927603F0927703FF
:10176000BE01DD0F880B990B0E94041020E030E0D1
:1017700040EA5BE30E9463109B01AC01209370037D
:10178000309371034093720350937303C701B60102
:101790000E9421116B017C0120E030E0A9010E9430
:1017A0002F12181624F0F7FAF094F7F8F09420E0CE
:1017B00030E040E050E4C701B6010E942F12181635
:1017C000FCF426E636E646E950E4C701B6010E947D
:1017D000FD0F87FF15C08FE891E00E946F0589E734
:1017E00091E00E946F056FE070E080E394E00E945A
:1017F00035058CE791E00E946F056EE070E06CCFDC
:101800002AE939E949E15FE3C701B6010E942F12D5
:101810001816FCF42DEC3CEC4CE45FE3C701B60178
:101820000E94FD0F87FF15C08CE791E00E946F05B5
:101830006EE070E080E394E00E94350589E791E076
:101840000E946F056FE070E080E394E00E94350530
:10185000CBCD61E087E00E94B50060E086E00E94A9
:10186000B50065E070E080E090E00E944E018EE0FF
:101870000E941401BC01990F880B990B0E9404105F
:101880006B017C01C0927803D0927903E0927A03D5
:10189000F0927B038FE00E941401EC0120E030E025
:1018A00040EA5BE3C701B6010E9463106B017C0153
:1018B000C0927403D0927503E0927603F09277039E
:1018C000BE01DD0F880B990B0E94041020E030E070
:1018D00040EA5BE30E9463106093700370937103AE
:1018E0008093720390937303A70196010E942111C4
:1018F0006B017C010E9474052AE939E949E15FE343
:10190000C701B6010E942F121816BCF42DEC3CEC56
:101910004CE45FE3C701B6010E94FD0F87FF0DC0D5
:1019200089E791E00E946F056EE070E080E394E04B
:101930000E9435058CE791E083CF81EA91E00E9417
:101940006F0560E087E00E94B50060E086E00E94DD
:10195000B5004ACD61E087E00E94B50060E086E016
:101960000E94B50065E070E080E090E00E944E01CA
:101970008EE00E941401BC01990F880B990B0E9404
:101980000410609378037093790380937A039093A3
:101990007B0320E030E040EA5BE30E946310609349
:1019A00074037093750380937603909377030E947A
:1019B0007405C0907403D0907503E0907603F090A6
:1019C000770320E030E04AEF54E4C701B6010E94FB
:1019D00063109B01AC0160E070E48CE995E40E9427
:1019E00021114B015C0120E030E040EA50E4C701E6
:1019F000B6010E9421119B01AC01C501B4010E94F6
:101A00008E116B017C0180EB91E00E946F05C70194
:101A1000B6010E94740585EC91E091CF0E94CF043D
:101A200060E087E00E94E30060E086E00E94E3005F
:101A300061E08FE00E94E30060E08FE00E94B5006B
:101A400065E070E080E090E00E944E018EE00E9430
:101A50001401BC01990F880B990B0E94041060932C
:101A600078037093790380937A0390937B0320E04B
:101A700030E040EA5BE30E9463106093740370936C
:101A80007503809376039093770388EC91E00E942E
:101A90006F05609174037091750380917603909146
:101AA00077030E94740561E087E00E94E30061E033
:101AB00087E00E94E30060E08FE00E94E30094CCA6
:101AC00081E192E00E946F052091700330917103D3
:101AD000409172035091730360E070E080EA90E4FB
:101AE0000E9421116B017C012091740330917503D8
:101AF000409176035091770360E070E080EA90E4D3
:101B00000E9421119B01AC01C701B6010E948E11F8
:101B10006B017C018AE092E0E5CD26E636E646E6FA
:101B20005FEBC701B6010E942F1218160CF059C2C4
:101B30002AE939E949E15FEBC701B6010E94FD0FCF
:101B400087FF4FC287E192E00E946F0520E030E0FE
:101B5000A901C701B6010E942F12181624F0F7FA46
:101B6000F094F7F8F09420E030E0A901C501B40149
:101B70000E942F12181624F0B7FAB094B7F8B09458
:101B8000A5019401C701B6010E942F1218169CF4FA
:101B900084E092E00E946F0520E030E040EA50E4EB
:101BA00060916C0370916D0380916E0390916F034F
:101BB0000E94221197CF81E192E00E946F05C090B0
:101BC0007403D0907503E0907603F090770320E0E3
:101BD00030E040EA50E4C701B6010E9422114B01F7
:101BE0005C01A701960160E070E080EA90E40E9449
:101BF00021119B01AC01C501B40188CF60E087E0F1
:101C00000E94B50061E086E00E94B50060E085E0DA
:101C10000E94B5008FE00E941401BC01990F880B4F
:101C2000990B0E940410609378037093790380935A
:101C30007A0390937B0320E030E040EA5BE30E946C
:101C400063104B015C018092740390927503A09223
:101C50007603B09277038EE00E941401BC01990FC5
:101C6000880B990B0E94041020E030E040EA5BE30F
:101C70000E9463106B017C01C0927003D0927103CB
:101C8000E0927203F092730380E10E941401BC01A0
:101C9000990F880B990B0E94041020E030E040EA75
:101CA0005BE30E9463102B013C0140926C03509255
:101CB0006D0360926E0370926F03A7019601C501D8
:101CC000B4010E9421116B017C01A3019201C501A5
:101CD000B4010E9421114B015C012AE939E949E173
:101CE0005FE3C701B6010E942F121816C4F526E65D
:101CF00036E646E65FE3C701B6010E94FD0F87FFA7
:101D00002EC082E492E00E946F050E949C0420E0B5
:101D100030E0A901C701B6010E942F12181624F065
:101D2000F7FAF094F7F8F09420E030E0A901C5014B
:101D3000B4010E942F12181624F0B7FAB094B7F825
:101D4000B094A5019401C701B6010E942F12181684
:101D50001CF48EE692E02DCC84E792E0B3CE26E62A
:101D600036E646E65FEBC501B4010E942F12181655
:101D70000CF037C12AE939E949E15FEBC501B4014B
:101D80000E94FD0F87FF2DC187E192E00E946F0541
:101D900020E030E0A901C701B6010E942F121816F9
:101DA00024F0F7FAF094F7F8F09420E030E0A9017D
:101DB000C501B4010E942F12181624F0B7FAB0948E
:101DC000B7F8B094A5019401C701B6010E942F1283
:101DD00018161CF48EE692E0DDCE84E792E00E94B5
:101DE0006F0520E030E040EA50E4609170037091AC
:101DF00071038091720390917303DACE60E087E003
:101E00000E94B50060E086E00E94B50061E085E0D8
:101E10000E94B50080E10E941401BC01990F880B5B
:101E2000990B0E9404106093780370937903809358
:101E30007A0390937B0320E030E040EA5BE30E946A
:101E400063104B015C018092740390927503A09221
:101E50007603B09277038EE00E941401BC01990FC3
:101E6000880B990B0E94041020E030E040EA5BE30D
:101E70000E9463106B017C01C0927003D0927103C9
:101E8000E0927203F09273038FE00E941401BC0190
:101E9000990F880B990B0E94041020E030E040EA73
:101EA0005BE30E9463102B013C0140926C03509253
:101EB0006D0360926E0370926F03A7019601C501D6
:101EC000B4010E9421116B017C01A3019201C501A3
:101ED000B4010E9421114B015C012AE939E949E171
:101EE0005FE3C701B6010E942F121816C4F526E65B
:101EF00036E646E65FE3C701B6010E94FD0F87FFA5
:101F00002EC089ED91E00E946F050E949C0420E0A4
:101F100030E0A901C701B6010E942F12181624F063
:101F2000F7FAF094F7F8F09420E030E0A901C50149
:101F3000B4010E942F12181624F0B7FAB094B7F823
:101F4000B094A5019401C701B6010E942F12181682
:101F50001CF48AE792E02DCB80E892E0B3CD26E630
:101F600036E646E65FEBC501B4010E942F12181653
:101F7000C4F52AE939E949E15FEBC501B4010E94E2
:101F8000FD0F87FF2EC086E892E00E946F050E9439
:101F90009C0420E030E0A901C701B6010E942F1285
:101FA000181624F0F7FAF094F7F8F09420E030E0F7
:101FB000A901C501B4010E942F12181624F0B7FA26
:101FC000B094B7F8B094A5019401C701B6010E947E
:101FD0002F1218161CF48AE792E0DCCD80E892E01C
:101FE000FECE2196C330D10509F02CCA64E070E022
:101FF00080E090E00E944E01F7C90E943F1008F473
:1020000081E00895E89409C097FB3EF4909580958F
:10201000709561957F4F8F4F9F4F9923A9F0F92FAE
:1020200096E9BB279395F695879577956795B7952C
:10203000F111F8CFFAF4BB0F11F460FF1BC06F5F12
:102040007F4F8F4F9F4F16C0882311F096E911C024
:10205000772321F09EE8872F762F05C0662371F045
:1020600096E8862F70E060E02AF09A95660F771F59
:10207000881FDAF7880F9695879597F90895990F35
:102080000008550FAA0BE0E8FEEF16161706E80742
:10209000F907C0F012161306E407F50798F0621B63
:1020A000730B840B950B39F40A2661F0232B242B38
:1020B000252B21F408950A2609F4A140A6958FEF57
:1020C000811D811D08950E9476100C94E7100E94D6
:1020D000D91038F00E94E01020F0952311F00C94F4
:1020E000D0100C94D61011240C941B110E94F810DF
:1020F00070F3959FC1F3950F50E0551F629FF0015B
:10210000729FBB27F00DB11D639FAA27F00DB11D73
:10211000AA1F649F6627B00DA11D661F829F2227FC
:10212000B00DA11D621F739FB00DA11D621F839F83
:10213000A00D611D221F749F3327A00D611D231F59
:10214000849F600D211D822F762F6A2F11249F57A7
:1021500050409AF0F1F088234AF0EE0FFF1FBB1FAA
:10216000661F771F881F91505040A9F79E3F510569
:1021700080F00C94D0100C941B115F3FE4F3983E58
:10218000D4F3869577956795B795F795E7959F5F13
:10219000C1F7FE2B880F911D9695879597F90895A5
:1021A00097F99F6780E870E060E008959FEF80EC0A
:1021B000089500240A9416161706180609060895AD
:1021C00000240A9412161306140605060895092E13
:1021D0000394000C11F4882352F0BB0F40F4BF2B82
:1021E00011F460FF04C06F5F7F4F8F4F9F4F0895C2
:1021F00057FD9058440F551F59F05F3F71F04795B8
:10220000880F97FB991F61F09F3F79F0879508959C
:10221000121613061406551FF2CF4695F1DF08C0BB
:10222000161617061806991FF1CF869571056105D8
:1022300008940895E894BB2766277727CB0197F980
:1022400008955058BB27AA270E9439110C94E71013
:102250000E94D91038F00E94E01020F039F49F3F1E
:1022600019F426F40C94D6100EF4E095E7FB0C94C8
:10227000D010E92F0E94F81058F3BA1762077307BD
:102280008407950720F079F4A6F50C941A110EF442
:10229000E0950B2EBA2FA02D0B01B90190010C0176
:1022A000CA01A0011124FF27591B99F0593F50F48E
:1022B000503E68F11A16F040A22F232F342F4427E6
:1022C000585FF3CF469537952795A795F0405395DE
:1022D000C9F77EF41F16BA0B620B730B840BBAF0AE
:1022E0009150A1F0FF0FBB1F661F771F881FC2F719
:1022F0000EC0BA0F621F731F841F48F4879577952D
:102300006795B795F7959E3F08F0B0CF9395880FE6
:1023100008F09927EE0F9795879508950E94A211CE
:102320000C94E7100E94E01058F00E94D91040F081
:1023300029F45F3F29F00C94D01051110C941B111B
:102340000C94D6100E94F81068F39923B1F355232A
:1023500091F3951B550BBB27AA27621773078407B8
:1023600038F09F5F5F4F220F331F441FAA1FA9F34E
:1023700035D00E2E3AF0E0E832D091505040E6953C
:10238000001CCAF72BD0FE2F29D0660F771F881F9D
:10239000BB1F261737074807AB07B0E809F0BB0B90
:1023A000802DBF01FF2793585F4F3AF09E3F5105A4
:1023B00078F00C94D0100C941B115F3FE4F3983E1E
:1023C000D4F3869577956795B795F7959F5FC9F78D
:1023D000880F911D9695879597F90895E1E0660F0E
:1023E000771F881FBB1F621773078407BA0720F087
:1023F000621B730B840BBA0BEE1F88F7E0950895F0
:102400000E94001188F09F5798F0B92F9927B75173
:10241000B0F0E1F0660F771F881F991F1AF0BA9588
:10242000C9F714C0B13091F00E941A11B1E00895BB
:102430000C941A11672F782F8827B85F39F0B93FAD
:10244000CCF3869577956795B395D9F73EF490953B
:102450008095709561957F4F8F4F9F4F08950E9493
:102460003F1008F48FEF08950E943F10880B990BDE
:102470000895A1E21A2EAA1BBB1BFD010DC0AA1FC5
:10248000BB1FEE1FFF1FA217B307E407F50720F0DD
:10249000A21BB30BE40BF50B661F771F881F991F58
:1024A0001A9469F760957095809590959B01AC01A1
:1024B000BD01CF010895EE0FFF1F0590F491E02DAF
:1024C0000994F894FFCF000040001400540000006D
:1024D000000022028201AF016F02E001BE01D201C1
:1024E000000000004D0320036304F60219030603F5
:1024F000F702000000009604820163048F026E61FF
:102500006E00696E66006F7666004D656469646F83
:102510007220646520636F6D706F6E656E74657395
:102520000050726F796563746F2066696E616C002C
:102530000D0A0044696F646F207A656E6572004110
:102540003A00433A00566F6C74616A65207A656E92
:1025500065723A2000457320756E2064696F646F60
:10256000207A656E6572004E6F20657320756E204F
:1025700064696F646F00526573697374656E636933
:1025800061206D65646964613A2000CEA900566FD0
:102590006C74616A65206D656469646F3A200045FA
:1025A0007320756E204E504E20636F6E206C61203C
:1025B0007369677569656E746520636F6E666967B8
:1025C0007572616369C3B36E3A004245432E2000C1
:1025D000426574613A20004243452E200045732035
:1025E000756E20504E5020636F6E206C61207369B1
:1025F000677569656E746520636F6E66696775726D
:10260000616369C3B36E3A00457320756E204E5006
:102610004E20636F6E206C61207369677569656E0B
:10262000746520636F6E6669677572616369C3B3B1
:102630006E3A20004342452E20004542432E2000A2
:102640004345422E20004543422E2000504E50204C
:10265000636F6E6669677572616369C3B36E3A20B2
:10266000005265616C697A616E646F206D656469A2
:0826700063696F6E65730000E1
:107E0000112484B714BE81FFF0D085E080938100F7
:107E100082E08093C00088E18093C10086E0809377
:107E2000C20080E18093C4008EE0C9D0259A86E02C
:107E300020E33CEF91E0309385002093840096BBD3
:107E4000B09BFECF1D9AA8958150A9F7CC24DD24C4
:107E500088248394B5E0AB2EA1E19A2EF3E0BF2EE7
:107E6000A2D0813461F49FD0082FAFD0023811F036
:107E7000013811F484E001C083E08DD089C08234E0
:107E800011F484E103C0853419F485E0A6D080C0E4
:107E9000853579F488D0E82EFF2485D0082F10E0AE
:107EA000102F00270E291F29000F111F8ED06801E7
:107EB0006FC0863521F484E090D080E0DECF843638
:107EC00009F040C070D06FD0082F6DD080E0C81688
:107ED00080E7D80618F4F601B7BEE895C0E0D1E017
:107EE00062D089930C17E1F7F0E0CF16F0E7DF06D8
:107EF00018F0F601B7BEE89568D007B600FCFDCFD4
:107F0000A601A0E0B1E02C9130E011968C91119780
:107F100090E0982F8827822B932B1296FA010C0160
:107F200087BEE89511244E5F5F4FF1E0A038BF0790
:107F300051F7F601A7BEE89507B600FCFDCF97BE46
:107F4000E89526C08437B1F42ED02DD0F82E2BD052
:107F50003CD0F601EF2C8F010F5F1F4F84911BD097
:107F6000EA94F801C1F70894C11CD11CFA94CF0C13
:107F7000D11C0EC0853739F428D08EE10CD085E9AC
:107F80000AD08FE07ACF813511F488E018D01DD067
:107F900080E101D065CF982F8091C00085FFFCCF94
:107FA0009093C60008958091C00087FFFCCF809118
:107FB000C00084FD01C0A8958091C6000895E0E648
:107FC000F0E098E1908380830895EDDF803219F02E
:107FD00088E0F5DFFFCF84E1DECF1F93182FE3DFCA
:107FE0001150E9F7F2DF1F91089580E0E8DFEE27F6
:047FF000FF270994CA
:027FFE00040479
:00000001FF
