:100000000C9462000C948A000C948A000C948A0070
:100010000C948A000C948A000C948A000C948A0038
:100020000C948A000C948A000C948A000C948A0028
:100030000C948A000C948A000C948A000C948A0018
:100040000C940A040C948A000C947A040C945404C2
:100050000C948A000C948A000C948A000C948A00F8
:100060000C948A000C948A000000000023002600F3
:10007000290000000000240027002A0000000000E2
:10008000250028002B0004040404040404040202D4
:100090000202020203030303030301020408102007
:1000A0004080010204081020010204081020000012
:1000B0000008000201000003040700000000000027
:1000C00000000C0B11241FBECFEFD8E0DEBFCDBF68
:1000D00022E0AAE3B2E001C01D92A23FB207E1F71D
:1000E00012E0A0E0B1E0EEE3FBE102C005900D926A
:1000F000AA33B107D9F710E0C2E6D0E004C02197D7
:10010000FE010E94970DC136D107C9F70E94AC04C9
:100110000C949D0D0C940000833081F028F4813004
:1001200099F08230A9F008958730A9F08830C9F09D
:100130008430B1F4809180008F7D03C08091800075
:100140008F7780938000089584B58F7784BD08955C
:1001500084B58F7DFBCF8091B0008F778093B00006
:1001600008958091B0008F7DF9CF1F93CF93DF93D7
:10017000282F30E0F901E255FF4F8491F901E6564E
:10018000FF4FD491F901EA57FF4FC491CC23A9F056
:10019000162F81110E948C00EC2FF0E0EE0FFF1F54
:1001A000E458FF4FA591B4918FB7F894EC911111D9
:1001B00008C0D095DE23DC938FBFDF91CF911F91D4
:1001C0000895DE2BF8CFCF93DF9390E0FC01E65645
:1001D000FF4F24918A579F4FFC0184918823D1F0CF
:1001E00090E0880F991FFC01EE58FF4FA591B49144
:1001F000FC01E458FF4FC591D49161110EC09FB727
:10020000F8948C91E22FE0958E238C932881E22341
:10021000E8839FBFDF91CF9108958FB7F894EC9159
:10022000E22BEC938FBFF6CF8E3008F08E508770A4
:10023000806480937C0080917A00806480937A004F
:1002400080917A0086FDFCCF8091780090917900B2
:1002500008953FB7F8948091510290915202A09175
:100260005302B091540226B5A89B05C02F3F19F048
:100270000196A11DB11D3FBFBA2FA92F982F882726
:10028000BC01CD01620F711D811D911D42E0660F01
:10029000771F881F991F4A95D1F708958F929F92D3
:1002A000AF92BF92CF92DF92EF92FF924B015C012F
:1002B0000E9429016B017C010E9429016C197D09B2
:1002C0008E099F09683E734081059105A8F321E0DE
:1002D000821A9108A108B10888EEC80E83E0D81EE2
:1002E000E11CF11C81149104A104B10429F7FF90D1
:1002F000EF90DF90CF90BF90AF909F908F90089538
:10030000AF92BF92CF92DF92EF92FF920F931F9323
:10031000CF93DF936C017B018B01040F151FEB0161
:100320005E01AE18BF08C017D10759F06991D60118
:10033000ED91FC910190F081E02DC6010995892B8A
:1003400079F7C501DF91CF911F910F91FF90EF9049
:10035000DF90CF90BF90AF900895FC01538D448DF6
:10036000252F30E0842F90E0821B930B541710F060
:10037000CF96089501970895FC01918D828D98176D
:1003800061F0A28DAE0FBF2FB11D5D968C91928D45
:100390009F5F9F73928F90E008958FEF9FEF089576
:1003A000FC01918D828D981731F0828DE80FF11D3F
:1003B000858D90E008958FEF9FEF0895FC01918D5A
:1003C000228D892F90E0805C9F4F821B91098F7353
:1003D0009927089585E592E00E94DE0121E0892BAE
:1003E00009F420E0822F089580E090E0892B29F025
:1003F0000E94EA0181110C9400000895FC01A48D73
:10040000A80FB92FB11DA35ABF4F2C91848D90E036
:1004100001968F739927848FA689B7892C93A08919
:10042000B1898C91837080648C93938D848D9813A3
:1004300006C00288F389E02D80818F7D8083089536
:10044000EF92FF920F931F93CF93DF93EC0181E024
:10045000888F9B8D8C8D98131AC0E889F9898081CB
:1004600085FF15C09FB7F894EE89FF896083E889FE
:10047000F98980818370806480839FBF81E090E0F0
:10048000DF91CF911F910F91FF90EF900895F62E7D
:100490000B8D10E00F5F1F4F0F731127E02E8C8D17
:1004A0008E110CC00FB607FCFACFE889F98980815C
:1004B00085FFF5CFCE010E94FE01F1CFEB8DEC0F51
:1004C000FD2FF11DE35AFF4FF0829FB7F8940B8F79
:1004D000EA89FB8980818062CFCFCF93DF93EC01E3
:1004E000888D8823B9F0AA89BB89E889F9898C911C
:1004F00085FD03C0808186FD0DC00FB607FCF7CFD8
:100500008C9185FFF2CF808185FFEDCFCE010E94D7
:10051000FE01E9CFDF91CF910895FC010190002009
:10052000E9F73197AF01481B590BBC0185E592E013
:100530000C9480018F929F92AF92BF920F931F9362
:10054000CF93DF93CDB7DEB7A1970FB6F894DEBF98
:100550000FBECDBF19A2423008F44AE08E010F5DF4
:100560001F4F842E912CB12CA12CA50194010E9427
:10057000750DE62FB901CA01EA30F4F4E05DD80147
:10058000EE938D01232B242B252B79F790E080E02F
:10059000109719F0CD010E948D02A1960FB6F89424
:1005A000DEBF0FBECDBFDF91CF911F910F91BF90E6
:1005B000AF909F908F900895E95CE1CFCF93DF9348
:1005C0000E948D02EC0182E191E00E948D028C0F6D
:1005D0009D1FDF91CF9108950C948D02CF92DF92F1
:1005E000EF92FF92CF93DF936C01990FEE08FF0813
:1005F000F7FE1FC06DE285E592E00E942002EC014B
:1006000066277727CB016C197D098E099F094AE07F
:100610000E949A02C80FD91F82E191E00E948D02C8
:100620008C0F9D1FDF91CF91FF90EF90DF90CF90C7
:1006300008954AE0C701B6010E949A02EC01ECCF8E
:100640004F925F926F927F928F929F92AF92BF92E2
:10065000CF92DF92EF92FF920F931F93CF936B0194
:100660007C01742EAC019B010E94700D882399F0CF
:1006700085E191E0CF911F910F91FF90EF90DF9076
:10068000CF90BF90AF909F908F907F906F905F9032
:100690004F900C948D0246015701E894B7F82FEF64
:1006A0003FEF4FE75FE7C501B4010E94700D811174
:1006B0000DC02FEF3FEF4FE75FE7C501B4010E9488
:1006C000390B18161CF489E191E0D4CF2FEF3FEFDE
:1006D0004FE75FE4C701B6010E946B0D18161CF4CA
:1006E0008DE191E0C7CF2FEF3FEF4FE75FECC70100
:1006F000B6010E94390B87FDF3CF20E030E0A9015D
:10070000C701B6010E94390B10E000E087FF0AC064
:100710006DE285E592E00E9420028C01F7FAF094E8
:10072000F7F8F094C0E060E070E080E09FE37C16B2
:1007300041F020E030E040E251E40E94CA0CCF5F7B
:10074000F6CFA70196010E945E0C2B013C010E948E
:100750003C0D4B015C014AE00E949A027C01E00ED4
:10076000F11ECC23C1F1C501B4010E943E0B9B01D7
:10077000AC01C301B2010E945D0C4B015C016EE251
:1007800085E592E00E942002E80EF91EC15018F1A2
:1007900020E030E040E251E4C501B4010E949F0B2B
:1007A0002B013C010E943C0D4B01B12CA12C4AE0D5
:1007B000C501B4010E949A02E80EF91EC501B401F8
:1007C0000E943E0B9B01AC01C301B2010E945D0C73
:1007D0004B015C01DBCFC701CF911F910F91FF90BF
:1007E000EF90DF90CF90BF90AF909F908F907F90D1
:1007F0006F905F904F900895CF93DF930E942003F6
:10080000EC0182E191E00E948D028C0F9D1FDF912F
:10081000CF9108951F920F920FB60F9211242F932C
:100820003F938F939F93AF93BF9380914D0290918D
:100830004E02A0914F02B091500230914C0223E041
:10084000230F2D3758F50196A11DB11D20934C02A1
:1008500080934D0290934E02A0934F02B0935002AA
:100860008091510290915202A0915302B091540292
:100870000196A11DB11D8093510290935202A09345
:100880005302B0935402BF91AF919F918F913F91CA
:100890002F910F900FBE0F901F90189526E8230FF1
:1008A0000296A11DB11DD2CF1F920F920FB60F92CB
:1008B00011242F933F934F935F936F937F938F9365
:1008C0009F93AF93BF93EF93FF9385E592E00E94D0
:1008D000FE01FF91EF91BF91AF919F918F917F9119
:1008E0006F915F914F913F912F910F900FBE0F909D
:1008F0001F9018951F920F920FB60F9211242F93ED
:100900008F939F93EF93FF93E0916502F0916602BE
:100910008081E0916B02F0916C0282FD1BC090819E
:1009200080916E028F5F8F7320916F02821741F06A
:10093000E0916E02F0E0EB5AFD4F958F80936E02CE
:10094000FF91EF919F918F912F910F900FBE0F907C
:100950001F9018958081F4CF789484B5826084BD0F
:1009600084B5816084BD85B5826085BD85B58160B3
:1009700085BD80916E00816080936E001092810031
:1009800080918100826080938100809181008160EC
:1009900080938100809180008160809380008091AD
:1009A000B10084608093B1008091B0008160809339
:1009B000B00080917A00846080937A0080917A0000
:1009C000826080937A0080917A00816080937A00BF
:1009D00080917A00806880937A001092C10060E074
:1009E0008EE00E94E30060E08FE00E94E30060E0A0
:1009F00080E10E94E30061E087E00E94E30061E0A3
:100A000086E00E94E30061E085E00E94E30060E090
:100A100084E00E94E300E0916502F091660282E0CA
:100A20008083E0916102F09162021082E0916302A2
:100A3000F09164028FEC808310926D02E091690264
:100A4000F0916A0286E08083E0916702F09168028B
:100A5000808180618083E0916702F09168028081EB
:100A600088608083E0916702F091680280818068ED
:100A70008083E0916702F091680280818F7D80839E
:100A80009AE8292E90E0392E00E010E0E2EBF0E049
:100A90008491EEE9F0E0D491F101C491CC23C9F046
:100AA00081110E948C00EC2FF0E0EE0FFF1FE8593F
:100AB000FF4FA591B4918C91D82359F080914A02AF
:100AC00090914B028530910561F510924B02109286
:100AD0004A0280914A0290914B020E94EE0280915C
:100AE0004A0290914B028130910509F4CCC2FCF48A
:100AF000892B09F40EC184E292E00E94DE0268EEC6
:100B000073E080E090E00E944E010115110509F4A8
:100B1000BDCF0E94EA01882309F4B8CF0E940000EB
:100B2000B5CF019690934B0280934A02D2CF823088
:100B3000910509F40FC30397F1F682E891E00E9452
:100B4000DE02D0E0C0E0C130D10509F470C3C2308C
:100B5000D10509F461C481E991E00E94DE0261E0FF
:100B600087E00E94B50060E086E00E94E30060E05C
:100B700085E00E94B5008EE00E941401BC01990F2F
:100B8000880B990B0E94400B6093460270934702BA
:100B9000809348029093490220E030E040EA5BE312
:100BA0000E949F0B2B013C01409242025092430253
:100BB00060924402709245028FE00E941401BC01D1
:100BC000990F880B990B0E94400B20E030E040EA1F
:100BD0005BE30E949F0B6B017C01C0923E02D092AE
:100BE0003F02E0924002F092410280E10E94140133
:100BF000BC01990F880B990B0E94400B20E030E05C
:100C000040EA5BE30E949F0B4B015C0180923A0239
:100C100090923B02A0923C02B0923D02A701960145
:100C2000C301B2010E945D0C6B017C01A50194011E
:100C3000C301B2010E945D0C4B015C0144E050E035
:100C4000C301B2010E94FC0360913E0270913F0219
:100C5000809140029091410244E050E00E94FC03E8
:100C600060913A0270913B0280913C0290913D026A
:100C700044E050E00E94FC0344E050E0C501B401B0
:100C80000E94FC0344E050E0C701B6010E94FC034F
:100C90002AE939E949E15FE3C701B6010E946B0D1A
:100CA00018160CF0ACC226E636E646E65FE3C7014E
:100CB000B6010E94390B87FFA2C28DE991E00E9424
:100CC000DE0220E030E0A901C701B6010E946B0DF1
:100CD000181624F0F7FAF094F7F8F09420E030E0DA
:100CE000A901C501B4010E946B0D181624F0B7FAD2
:100CF000B094B7F8B094A5019401C701B6010E9461
:100D00006B0D18160CF078C288EC91E00E94DE02A0
:100D1000F2CE61E087E00E94B50060E086E00E94CC
:100D2000B50065E070E080E090E00E944E018EE04A
:100D30000E941401BC01990F880B990B0E94400B73
:100D40006B017C01C0924602D0924702E0924802B9
:100D5000F09249028FE00E941401EC0120E030E0A3
:100D600040EA5BE3C701B6010E949F0B6B017C0167
:100D7000C0924202D0924302E0924402F0924502B5
:100D8000BE01DD0F880B990B0E94400B20E030E084
:100D900040EA5BE30E949F0B60933E0270933F0228
:100DA0008093400290934102A70196010E945D0C3E
:100DB0006B017C0120E030E0A9010E946B0D181648
:100DC00024F0F7FAF094F7F8F09420E030E040E0F7
:100DD00050E4C701B6010E946B0D18164CF526E6CB
:100DE00036E646E950E4C701B6010E94390B87FF99
:100DF0001FC081E291E00E94DE0283E391E00E9445
:100E0000EC028EE090E00E94EE0286E391E00E9408
:100E1000EC028FE090E00E94EE0289E391E00E94F4
:100E2000EC0242E050E0C701B6010E94FC0363CE31
:100E300060E087E00E94B50061E086E00E94B500B6
:100E400065E070E080E090E00E944E018EE00E943C
:100E50001401BC01990F880B990B0E94400B6B0188
:100E60007C01C0924602D0924702E0924802F09282
:100E700049028FE00E941401EC0120E030E040EADA
:100E80005BE3C701B6010E949F0B6B017C01C0921E
:100E90004202D0924302E0924402F0924502BE0127
:100EA000DD0F880B990B0E94400B20E030E040EAF8
:100EB0005BE30E949F0B9B01AC0120933E023093A9
:100EC0003F024093400250934102C701B6010E9485
:100ED0005D0C6B017C0120E030E0A9010E946B0DEC
:100EE000181624F0F7FAF094F7F8F09420E030E0C8
:100EF00040E050E4C701B6010E946B0D1816ECF4F7
:100F000026E636E646E950E4C701B6010E94390BF1
:100F100087FF13C081E291E00E94DE0283E391E04B
:100F20000E94EC028FE090E00E94EE0286E391E0E6
:100F30000E94EC028EE090E06ECF2AE939E949E1A7
:100F40005FE3C701B6010E946B0D1816DCF42DECAF
:100F50003CEC4CE45FE3C701B6010E94390B87FF0C
:100F600011C086E391E00E94EC028EE090E00E94C6
:100F7000EE0283E391E00E94EC028FE090E00E9499
:100F8000EE02B9CD61E087E00E94B50060E086E046
:100F90000E94B50065E070E080E090E00E944E01A4
:100FA0008EE00E941401BC01990F880B990B0E94DE
:100FB000400B6B017C01C0924602D0924702E09246
:100FC0004802F09249028FE00E941401EC0120E0F7
:100FD00030E040EA5BE3C701B6010E949F0B6B0162
:100FE0007C01C0924202D0924302E0924402F0920D
:100FF0004502BE01DD0F880B990B0E94400B20E0DB
:1010000030E040EA5BE30E949F0B60933E027093E6
:101010003F028093400290934102A70196010E94F3
:101020005D0C6B017C0142E050E00E94FC032AE968
:1010300039E949E15FE3C701B6010E946B0D18165B
:10104000ACF42DEC3CEC4CE45FE3C701B6010E942C
:10105000390B87FF0BC083E391E00E94EC028EE026
:1010600090E00E94EE0286E391E085CF89E491E072
:101070000E94DE0260E087E00E94B50060E086E04A
:101080000E94B50038CD61E087E00E94B50060E0C5
:1010900086E00E94B50065E070E080E090E00E948C
:1010A0004E018EE00E941401BC01990F880B990B30
:1010B0000E94400B6093460270934702809348025F
:1010C0009093490220E030E040EA5BE30E949F0BEE
:1010D00060934202709343028093440290934502CE
:1010E00042E050E00E94FC03C0904202D0904302D4
:1010F000E0904402F090450220E030E04AEF54E4F2
:10110000C701B6010E949F0B9B01AC0160E070E437
:101110008CE995E40E945D0C4B015C0120E030E01D
:1011200040EA50E4C701B6010E945D0C9B01AC018E
:10113000C501B4010E94CA0C6B017C0188E591E0F5
:101140000E94EC0242E0C701B6010E9420038DE636
:1011500091E08ECF60E087E00E94E30060E086E0EF
:101160000E94E30061E08FE00E94E30060E08FE016
:101170000E94B50065E070E080E090E00E944E01C2
:101180008EE00E941401BC01990F880B990B0E94FC
:10119000400B6093460270934702809348029093FD
:1011A000490220E030E040EA5BE30E949F0B60933D
:1011B000420270934302809344029093450280E779
:1011C00091E00E94EC026091420270914302809192
:1011D00044029091450242E050E00E94FC0361E02D
:1011E00087E00E94E30061E087E00E94E30060E0A6
:1011F0008FE00E94E3007FCC8CEC91E087CD26E667
:1012000036E646E65FEBC701B6010E946B0D181685
:101210000CF0F6C12AE939E949E15FEBC701B601F3
:101220000E94390B87FFECC180ED91E048CD8BEF38
:1012300091E00E94DE0260E087E00E94B50061E07C
:1012400086E00E94B50060E085E00E94B5008FE076
:101250000E941401BC01990F880B990B0E94400B4E
:10126000609346027093470280934802909349022C
:1012700020E030E040EA5BE30E949F0B2B013C0141
:1012800040924202509243026092440270924502A0
:101290008EE00E941401BC01990F880B990B0E94EB
:1012A000400B20E030E040EA5BE30E949F0B6B01C3
:1012B0007C01C0923E02D0923F02E0924002F09246
:1012C000410280E10E941401BC01990F880B990B27
:1012D0000E94400B20E030E040EA5BE30E949F0B5D
:1012E0004B015C0180923A0290923B02A0923C0238
:1012F000B0923D02A7019601C301B2010E945D0CAC
:101300006B017C01A5019401C301B2010E945D0C37
:101310004B015C0142E050E0C301B2010E94FC03BA
:1013200060913E0270913F02809140029091410293
:1013300042E050E00E94FC0360913A0270913B024F
:1013400080913C0290913D0242E050E00E94FC03FB
:1013500042E050E0C501B4010E94FC0342E050E0CD
:10136000C701B6010E94FC032AE939E949E15FE3BC
:10137000C701B6010E946B0D1816B4F526E636E6D5
:1013800046E65FE3C701B6010E94390B87FF2CC018
:101390008DE991E00E94DE0220E030E0A901C70162
:1013A000B6010E946B0D181624F0F7FAF094F7F8C6
:1013B000F09420E030E0A901C501B4010E946B0D5A
:1013C000181624F0B7FAB094B7F8B094A5019401B8
:1013D000C701B6010E946B0D18161CF488E092E05C
:1013E00095CC8CE092E092CC26E636E646E65FEBC2
:1013F000C501B4010E946B0D18160CF001C12AE959
:1014000039E949E15FEBC501B4010E94390B87FF5F
:10141000F7C080ED91E0BECF80E192E00E94DE0255
:1014200060E087E00E94B50060E086E00E94B500C1
:1014300061E085E00E94B50080E10E941401BC01DA
:10144000990F880B990B0E94400B60934602709392
:101450004702809348029093490220E030E040EA3E
:101460005BE30E949F0B2B013C0140924202509291
:10147000430260924402709245028EE00E94140181
:10148000BC01990F880B990B0E94400B20E030E0C3
:1014900040EA5BE30E949F0B6B017C01C0923E021D
:1014A000D0923F02E0924002F09241028FE00E940F
:1014B0001401BC01990F880B990B0E94400B20E08E
:1014C00030E040EA5BE30E949F0B4B015C0180929D
:1014D0003A0290923B02A0923C02B0923D02A701D8
:1014E0009601C301B2010E945D0C6B017C01A50154
:1014F0009401C301B2010E945D0C4B015C0142E00A
:1015000050E0C301B2010E94FC0360913E02709161
:101510003F02809140029091410242E050E00E94DF
:10152000FC0360913A0270913B0280913C029091E1
:101530003D0242E050E00E94FC0342E050E0C50161
:10154000B4010E94FC0342E050E0C701B6010E94D2
:10155000FC032AE939E949E15FE3C701B6010E94CA
:101560006B0D1816B4F526E636E646E65FE3C701CE
:10157000B6010E94390B87FF2CC08DE991E00E94D3
:10158000DE0220E030E0A901C701B6010E946B0D28
:10159000181624F0F7FAF094F7F8F09420E030E011
:1015A000A901C501B4010E946B0D181624F0B7FA09
:1015B000B094B7F8B094A5019401C701B6010E9498
:1015C0006B0D18161CF48CE192E0A0CB80E292E047
:1015D0009DCB26E636E646E65FEBC501B4010E94E8
:1015E0006B0D18166CF42AE939E949E15FEBC50186
:1015F000B4010E94390B87FF03C080ED91E0BFCF9B
:101600002196C330D10509F09ECA68EE73E080E0F0
:1016100090E00E944E016FCAE5E5F2E0138212826B
:1016200088EE93E0A0E0B0E084839583A683B7833F
:1016300084E091E09183808385EC90E095878487B6
:1016400084EC90E09787868780EC90E0918B808B8C
:1016500081EC90E0938B828B82EC90E0958B848B75
:1016600086EC90E0978B868B118E128E138E148EE3
:1016700008950E947B0B08F481E00895E89409C066
:1016800097FB3EF490958095709561957F4F8F4FB5
:101690009F4F9923A9F0F92F96E9BB279395F695CB
:1016A000879577956795B795F111F8CFFAF4BB0F49
:1016B00011F460FF1BC06F5F7F4F8F4F9F4F16C0AD
:1016C000882311F096E911C0772321F09EE8872F37
:1016D000762F05C0662371F096E8862F70E060E0F3
:1016E0002AF09A95660F771F881FDAF7880F96956C
:1016F000879597F90895990F0008550FAA0BE0E810
:10170000FEEF16161706E807F907C0F012161306C3
:10171000E407F50798F0621B730B840B950B39F403
:101720000A2661F0232B242B252B21F408950A2669
:1017300009F4A140A6958FEF811D811D08950E9497
:10174000B20B0C94230C0E94150C38F00E941C0C58
:1017500020F0952311F00C940C0C0C94120C112415
:101760000C94570C0E94340C70F3959FC1F3950FA5
:1017700050E0551F629FF001729FBB27F00DB11D15
:10178000639FAA27F00DB11DAA1F649F6627B00DA5
:10179000A11D661F829F2227B00DA11D621F739F8E
:1017A000B00DA11D621F839FA00D611D221F749F9C
:1017B0003327A00D611D231F849F600D211D822FE3
:1017C000762F6A2F11249F5750409AF0F1F088230A
:1017D0004AF0EE0FFF1FBB1F661F771F881F915037
:1017E0005040A9F79E3F510580F00C940C0C0C94CE
:1017F000570C5F3FE4F3983ED4F386957795679551
:10180000B795F795E7959F5FC1F7FE2B880F911D60
:101810009695879597F9089597F99F6780E870E006
:1018200060E008959FEF80EC089500240A94161656
:10183000170618060906089500240A9412161306BE
:10184000140605060895092E0394000C11F488234C
:1018500052F0BB0F40F4BF2B11F460FF04C06F5F68
:101860007F4F8F4F9F4F089557FD9058440F551F3E
:1018700059F05F3F71F04795880F97FB991F61F012
:101880009F3F79F087950895121613061406551F89
:10189000F2CF4695F1DF08C0161617061806991FF5
:1018A000F1CF86957105610508940895E894BB27EA
:1018B00066277727CB0197F908955058BB27AA27A9
:1018C0000E94750C0C94230C0E94150C38F00E9499
:1018D0001C0C20F039F49F3F19F426F40C94120CE0
:1018E0000EF4E095E7FB0C940C0CE92F0E94340CED
:1018F00058F3BA17620773078407950720F079F445
:10190000A6F50C94560C0EF4E0950B2EBA2FA02DD4
:101910000B01B90190010C01CA01A0011124FF279C
:10192000591B99F0593F50F4503E68F11A16F04097
:10193000A22F232F342F4427585FF3CF4695379596
:101940002795A795F0405395C9F77EF41F16BA0B5B
:10195000620B730B840BBAF09150A1F0FF0FBB1F09
:10196000661F771F881FC2F70EC0BA0F621F731F52
:10197000841F48F4879577956795B795F7959E3FAF
:1019800008F0B0CF9395880F08F09927EE0F979540
:10199000879508950E94DE0C0C94230C0E941C0C69
:1019A00058F00E94150C40F029F45F3F29F00C9488
:1019B0000C0C51110C94570C0C94120C0E94340C0A
:1019C00068F39923B1F3552391F3951B550BBB276E
:1019D000AA2762177307840738F09F5F5F4F220FB3
:1019E000331F441FAA1FA9F335D00E2E3AF0E0E8AA
:1019F00032D091505040E695001CCAF72BD0FE2FF4
:101A000029D0660F771F881FBB1F26173707480787
:101A1000AB07B0E809F0BB0B802DBF01FF2793583F
:101A20005F4F3AF09E3F510578F00C940C0C0C94EB
:101A3000570C5F3FE4F3983ED4F38695779567950E
:101A4000B795F7959F5FC9F7880F911D9695879574
:101A500097F90895E1E0660F771F881FBB1F621793
:101A600073078407BA0720F0621B730B840BBA0B51
:101A7000EE1F88F7E09508950E943C0C88F09F5770
:101A800098F0B92F9927B751B0F0E1F0660F771FA2
:101A9000881F991F1AF0BA95C9F714C0B13091F098
:101AA0000E94560CB1E008950C94560C672F782FC5
:101AB0008827B85F39F0B93FCCF38695779567955D
:101AC000B395D9F73EF490958095709561957F4FC9
:101AD0008F4F9F4F08950E947B0B08F48FEF08955E
:101AE0000E947B0B880B990B0895A1E21A2EAA1B6A
:101AF000BB1BFD010DC0AA1FBB1FEE1FFF1FA217BE
:101B0000B307E407F50720F0A21BB30BE40BF50BBA
:101B1000661F771F881F991F1A9469F76095709543
:101B2000809590959B01AC01BD01CF010895EE0F0A
:0E1B3000FF1F0590F491E02D0994F894FFCF6B
:101B3E000000000020028001AD016D02DE01BC013B
:101B4E00D0010D0A006E616E00696E66006F7666DA
:101B5E0000457320756E2064696F646F207A656E20
:101B6E00657200413A00433A00566F6C74616A65C3
:101B7E00207A656E65723A20004E6F20657320756F
:101B8E006E2064696F646F00526573697374656E5D
:101B9E00636961206D65646964613A2000CEA900B5
:101BAE0020566F6C74616A65206D656469646F3A66
:101BBE00200044657465726D696E617220424A54EC
:101BCE00005072696D6572206361736F00457320FA
:101BDE00756E204E504E20636F6E206C61207369BF
:101BEE00677569656E746520636F6E666967757279
:101BFE00616369C3B36E3A004245430042434500F8
:101C0E00457320756E20504E5020636F6E206C61B0
:101C1E00207369677569656E746520636F6E66699A
:101C2E00677572616369C3B36E3A00536567756E0B
:101C3E00646F206361736F00434245004542430069
:101C4E00546572636572206361736F004345420091
:101C5E00454342005265616C697A616E646F206D16
:0A1C6E0065646963696F6E657300B9
:00000001FF
