:020000040000FA
:100000000C9462000C948A000C948A000C948A0070
:100010000C948A000C948A000C948A000C948A0038
:100020000C948A000C948A000C948A000C948A0028
:100030000C948A000C948A000C948A000C948A0018
:100040000C940E040C948A000C947E040C945804B6
:100050000C948A000C948A000C948A000C948A00F8
:100060000C948A000C948A000000000023002600F3
:10007000290000000000240027002A0000000000E2
:10008000250028002B0004040404040404040202D4
:100090000202020203030303030301020408102007
:1000A0004080010204081020010204081020000012
:1000B0000008000201000003040700000000000027
:1000C0000000BA0B11241FBECFEFD8E0DEBFCDBFBA
:1000D00022E0A2E4B2E001C01D92AA3FB207E1F71C
:1000E00012E0A0E0B1E0EAE9FCE102C005900D9267
:1000F000A234B107D9F710E0C2E6D0E004C02197DE
:10010000FE010E94450EC136D107C9F70E94B00416
:100110000C944B0E0C940000833081F028F4813055
:1001200099F08230A9F008958730A9F08830C9F09D
:100130008430B1F4809180008F7D03C08091800075
:100140008F7780938000089584B58F7784BD08955C
:1001500084B58F7DFBCF8091B0008F778093B00006
:1001600008958091B0008F7DF9CF1F93CF93DF93D7
:10017000282F30E0F901E255FF4F8491F901E6564E
:10018000FF4FD491F901EA57FF4FC491CC23A9F056
:10019000162F81110E948C00EC2FF0E0EE0FFF1F54
:1001A000E458FF4FA591B4918FB7F894EC911111D9
:1001B00008C0D095DE23DC938FBFDF91CF911F91D4
:1001C0000895DE2BF8CFCF93DF9390E0FC01E65645
:1001D000FF4F24918A579F4FFC0184918823D1F0CF
:1001E00090E0880F991FFC01EE58FF4FA591B49144
:1001F000FC01E458FF4FC591D49161110EC09FB727
:10020000F8948C91E22FE0958E238C932881E22341
:10021000E8839FBFDF91CF9108958FB7F894EC9159
:10022000E22BEC938FBFF6CF8E3008F08E508770A4
:10023000806480937C0080917A00806480937A004F
:1002400080917A0086FDFCCF8091780090917900B2
:1002500008953FB7F8948091590290915A02A09165
:100260005B02B0915C0226B5A89B05C02F3F19F038
:100270000196A11DB11D3FBFBA2FA92F982F882726
:10028000BC01CD01620F711D811D911D42E0660F01
:10029000771F881F991F4A95D1F708958F929F92D3
:1002A000AF92BF92CF92DF92EF92FF924B015C012F
:1002B0000E9429016B017C010E9429016C197D09B2
:1002C0008E099F09683E734081059105A8F321E0DE
:1002D000821A9108A108B10888EEC80E83E0D81EE2
:1002E000E11CF11C81149104A104B10429F7FF90D1
:1002F000EF90DF90CF90BF90AF909F908F90089538
:10030000AF92BF92CF92DF92EF92FF920F931F9323
:10031000CF93DF936C017B018B01040F151FEB0161
:100320005E01AE18BF08C017D10759F06991D60118
:10033000ED91FC910190F081E02DC6010995892B8A
:1003400079F7C501DF91CF911F910F91FF90EF9049
:10035000DF90CF90BF90AF900895FC01538D448DF6
:10036000252F30E0842F90E0821B930B541710F060
:10037000CF96089501970895FC01918D828D98176D
:1003800061F0A28DAE0FBF2FB11D5D968C91928D45
:100390009F5F9F73928F90E008958FEF9FEF089576
:1003A000FC01918D828D981731F0828DE80FF11D3F
:1003B000858D90E008958FEF9FEF0895FC01918D5A
:1003C000228D892F90E0805C9F4F821B91098F7353
:1003D000992708958DE592E00E94DE0121E0892BA6
:1003E00009F420E0822F089580E090E0892B29F025
:1003F0000E94EA0181110C9400000895FC01A48D73
:10040000A80FB92FB11DA35ABF4F2C91848D90E036
:1004100001968F739927848FA689B7892C93A08919
:10042000B1898C91837080648C93938D848D9813A3
:1004300006C00288F389E02D80818F7D8083089536
:10044000EF92FF920F931F93CF93DF93EC0181E024
:10045000888F9B8D8C8D98131AC0E889F9898081CB
:1004600085FF15C09FB7F894EE89FF896083E889FE
:10047000F98980818370806480839FBF81E090E0F0
:10048000DF91CF911F910F91FF90EF900895F62E7D
:100490000B8D10E00F5F1F4F0F731127E02E8C8D17
:1004A0008E110CC00FB607FCFACFE889F98980815C
:1004B00085FFF5CFCE010E94FE01F1CFEB8DEC0F51
:1004C000FD2FF11DE35AFF4FF0829FB7F8940B8F79
:1004D000EA89FB8980818062CFCFCF93DF93EC01E3
:1004E000888D8823B9F0AA89BB89E889F9898C911C
:1004F00085FD03C0808186FD0DC00FB607FCF7CFD8
:100500008C9185FFF2CF808185FFEDCFCE010E94D7
:10051000FE01E9CFDF91CF910895FC010190002009
:10052000E9F73197AF01481B590BBC018DE592E00B
:100530000C9480018F929F92AF92BF920F931F9362
:10054000CF93DF93CDB7DEB7A1970FB6F894DEBF98
:100550000FBECDBF19A2423008F44AE08E010F5DF4
:100560001F4F842E912CB12CA12CA50194010E9427
:10057000230EE62FB901CA01EA30F4F4E05DD80198
:10058000EE938D01232B242B252B79F790E080E02F
:10059000109719F0CD010E948D02A1960FB6F89424
:1005A000DEBF0FBECDBFDF91CF911F910F91BF90E6
:1005B000AF909F908F900895E95CE1CFCF93DF9348
:1005C0000E948D02EC0182E191E00E948D028C0F6D
:1005D0009D1FDF91CF9108950C948D02CF92DF92F1
:1005E000EF92FF92CF93DF936C01990FEE08FF0813
:1005F000F7FE1FC06DE28DE592E00E942002EC0143
:1006000066277727CB016C197D098E099F094AE07F
:100610000E949A02C80FD91F82E191E00E948D02C8
:100620008C0F9D1FDF91CF91FF90EF90DF90CF90C7
:1006300008954AE0C701B6010E949A02EC01ECCF8E
:100640004F925F926F927F928F929F92AF92BF92E2
:10065000CF92DF92EF92FF920F931F93CF936B0194
:100660007C01742EAC019B010E941E0E882399F020
:1006700085E191E0CF911F910F91FF90EF90DF9076
:10068000CF90BF90AF909F908F907F906F905F9032
:100690004F900C948D0246015701E894B7F82FEF64
:1006A0003FEF4FE75FE7C501B4010E941E0E8111C5
:1006B0000DC02FEF3FEF4FE75FE7C501B4010E9488
:1006C000E70B18161CF489E191E0D4CF2FEF3FEF30
:1006D0004FE75FE4C701B6010E94190E18161CF41B
:1006E0008DE191E0C7CF2FEF3FEF4FE75FECC70100
:1006F000B6010E94E70B87FDF3CF20E030E0A901AF
:10070000C701B6010E94E70B10E000E087FF0AC0B6
:100710006DE28DE592E00E9420028C01F7FAF094E0
:10072000F7F8F094C0E060E070E080E09FE37C16B2
:1007300041F020E030E040E251E40E94780DCF5FCC
:10074000F6CFA70196010E940C0D2B013C010E94DF
:10075000EA0D4B015C014AE00E949A027C01E00E26
:10076000F11ECC23C1F1C501B4010E94EC0B9B0129
:10077000AC01C301B2010E940B0D4B015C016EE2A2
:100780008DE592E00E942002E80EF91EC15018F19A
:1007900020E030E040E251E4C501B4010E944D0C7C
:1007A0002B013C010E94EA0D4B01B12CA12C4AE027
:1007B000C501B4010E949A02E80EF91EC501B401F8
:1007C0000E94EC0B9B01AC01C301B2010E940B0D16
:1007D0004B015C01DBCFC701CF911F910F91FF90BF
:1007E000EF90DF90CF90BF90AF909F908F907F90D1
:1007F0006F905F904F900895CF93DF9342E00E94F7
:100800002003EC0182E191E00E948D028C0F9D1F7C
:10081000DF91CF91089542E00C9420031F920F9234
:100820000FB60F9211242F933F938F939F93AF9303
:10083000BF938091550290915602A0915702B091BA
:1008400058023091540223E0230F2D3758F50196BA
:10085000A11DB11D2093540280935502909356021E
:10086000A0935702B09358028091590290915A0276
:10087000A0915B02B0915C020196A11DB11D809315
:10088000590290935A02A0935B02B0935C02BF910D
:10089000AF919F918F913F912F910F900FBE0F902D
:1008A0001F90189526E8230F0296A11DB11DD2CFE7
:1008B0001F920F920FB60F9211242F933F934F93D5
:1008C0005F936F937F938F939F93AF93BF93EF93B8
:1008D000FF938DE592E00E94FE01FF91EF91BF91A1
:1008E000AF919F918F917F916F915F914F913F91C8
:1008F0002F910F900FBE0F901F9018951F920F927F
:100900000FB60F9211242F938F939F93EF93FF9322
:10091000E0916D02F0916E028081E0917302F0919E
:10092000740282FD1BC09081809176028F5F8F736D
:1009300020917702821741F0E0917602F0E0E35ACD
:10094000FD4F958F80937602FF91EF919F918F914C
:100950002F910F900FBE0F901F9018958081F4CFAC
:10096000789484B5826084BD84B5816084BD85B58A
:10097000826085BD85B5816085BD80916E00816096
:1009800080936E001092810080918100826080933C
:10099000810080918100816080938100809180003E
:1009A0008160809380008091B10084608093B10069
:1009B0008091B00081608093B00080917A00846063
:1009C00080937A0080917A00826080937A0080918F
:1009D0007A00816080937A0080917A0080688093A9
:1009E0007A001092C10060E08EE00E94E30060E0B7
:1009F0008FE00E94E30060E080E10E94E30061E09C
:100A000087E00E94E30061E086E00E94E30061E08D
:100A100085E00E94E30060E084E00E94E300E09152
:100A20006D02F0916E0282E08083E0916902F091A4
:100A30006A021082E0916B02F0916C028FEC80836D
:100A400010927502E0917102F091720286E080834B
:100A5000E0916F02F0917002808180618083E0916B
:100A60006F02F0917002808188608083E0916F0254
:100A7000F0917002808180688083E0916F02F09134
:100A8000700280818F7D80839AE8292E90E0392E34
:100A900000E010E0E2EBF0E08491EEE9F0E0D491C8
:100AA000F101C491CC23C9F081110E948C00EC2F7C
:100AB000F0E0EE0FFF1FE859FF4FA591B4918C9124
:100AC000D82359F0809152029091530285309105BC
:100AD00061F510925302109252028091520290914D
:100AE00053020E94EE028091520290915302813093
:100AF000910509F4C0C2FCF4892B09F406C18BE20C
:100B000092E00E94DE0268EE73E080E090E00E94D6
:100B10004E010115110509F4BDCF0E94EA01882399
:100B200009F4B8CF0E940000B5CF0196909353020C
:100B300080935202D2CF8230910509F400C303970B
:100B4000F1F682E891E00E94DE02D0E0C0E0C13020
:100B5000D10509F4CEC3C230D10509F4ECC481E952
:100B600091E00E94DE0261E087E00E94B50060E053
:100B700086E00E94E30060E085E00E94B5008EE020
:100B80000E941401BC01990F880B990B0E94EE0B77
:100B900060934E0270934F028093500290935102E3
:100BA00020E030E040EA5BE30E944D0C4B015C0129
:100BB00080924A0290924B02A0924C02B0924D0257
:100BC0008FE00E941401BC01990F880B990B0E94C1
:100BD000EE0B20E030E040EA5BE30E944D0C6B013D
:100BE0007C01C0924602D0924702E0924802F09205
:100BF000490280E10E941401BC01990F880B990BF6
:100C00000E94EE0B20E030E040EA5BE30E944D0CD6
:100C10002B013C01409242025092430260924402F6
:100C200070924502A7019601C501B4010E940B0D07
:100C30006B017C01A3019201C501B4010E940B0D5F
:100C40004B015C012AE939E949E15FE3C701B601DB
:100C50000E94190E18160CF0CFC226E636E646E6BC
:100C60005FE3C701B6010E94E70B87FFC5C28DE9AC
:100C700091E00E94DE0220E030E0A901C701B60148
:100C80000E94190E181624F0F7FAF094F7F8F09471
:100C900020E030E0A901C501B4010E94190E181628
:100CA00024F0B7FAB094B7F8B094A5019401C70145
:100CB000B6010E94190E18160CF091C288EC91E052
:100CC0000E94DE0220914202309143024091440290
:100CD0005091450260E070E080EA90E40E940B0DC4
:100CE0006B017C0120914A0230914B0240914C02F1
:100CF00050914D0260E070E080EA90E40E940B0D9C
:100D00009B01AC01C701B601E7C261E087E00E9428
:100D1000B50060E086E00E94B50065E070E080E02C
:100D200090E00E944E018EE00E941401BC01990FD8
:100D3000880B990B0E94EE0B6B017C01C0924E0256
:100D4000D0924F02E0925002F09251028FE00E9446
:100D50001401EC0120E030E040EA5BE3C701B6019A
:100D60000E944D0C6B017C01C0924A02D0924B0252
:100D7000E0924C02F0924D02BE01DD0F880B990B00
:100D80000E94EE0B20E030E040EA5BE30E944D0C55
:100D90006093460270934702809348029093490201
:100DA000A70196010E940B0D6B017C0120E030E051
:100DB000A9010E94190E181624F0F7FAF094F7F81A
:100DC000F09420E030E040E050E4C701B6010E941A
:100DD000190E18163CF526E636E646E950E4C7013A
:100DE000B6010E94E70B87FF1DC081E291E00E94DF
:100DF000DE0283E391E00E94EC028EE090E00E942C
:100E0000EE0286E391E00E94EC028FE090E00E9407
:100E1000EE0289E391E00E94EC02C701B6010E9454
:100E2000FC036DCE60E087E00E94B50061E086E0E3
:100E30000E94B50065E070E080E090E00E944E0105
:100E40008EE00E941401BC01990F880B990B0E943F
:100E5000EE0B6B017C01C0924E02D0924F02E092E9
:100E60005002F09251028FE00E941401EC0120E048
:100E700030E040EA5BE3C701B6010E944D0C6B0114
:100E80007C01C0924A02D0924B02E0924C02F09256
:100E90004D02BE01DD0F880B990B0E94EE0B20E086
:100EA00030E040EA5BE30E944D0C9B01AC012093D3
:100EB0004602309347024093480250934902C701CB
:100EC000B6010E940B0D6B017C0120E030E0A9010E
:100ED0000E94190E181624F0F7FAF094F7F8F0941F
:100EE00020E030E040E050E4C701B6010E94190E56
:100EF0001816ECF426E636E646E950E4C701B601DA
:100F00000E94E70B87FF13C081E291E00E94DE029E
:100F100083E391E00E94EC028FE090E00E94EE02F9
:100F200086E391E00E94EC028EE090E070CF2AE927
:100F300039E949E15FE3C701B6010E94190E1816AD
:100F4000DCF42DEC3CEC4CE45FE3C701B6010E94FD
:100F5000E70B87FF11C086E391E00E94EC028EE070
:100F600090E00E94EE0283E391E00E94EC028FE0A9
:100F700090E00E94EE02C3CD61E087E00E94B500E0
:100F800060E086E00E94B50065E070E080E090E0FF
:100F90000E944E018EE00E941401BC01990F880B43
:100FA000990B0E94EE0B6B017C01C0924E02D09215
:100FB0004F02E0925002F09251028FE00E94140121
:100FC000EC0120E030E040EA5BE3C701B6010E949B
:100FD0004D0C6B017C01C0924A02D0924B02E09210
:100FE0004C02F0924D02BE01DD0F880B990B0E945E
:100FF000EE0B20E030E040EA5BE30E944D0C609392
:101000004602709347028093480290934902A701D9
:1010100096010E940B0D6B017C010E94FC032AE9E2
:1010200039E949E15FE3C701B6010E94190E1816BC
:10103000ACF42DEC3CEC4CE45FE3C701B6010E943C
:10104000E70B87FF0BC083E391E00E94EC028EE088
:1010500090E00E94EE0286E391E087CF89E491E080
:101060000E94DE0260E087E00E94B50060E086E05A
:101070000E94B50044CD61E087E00E94B50060E0C9
:1010800086E00E94B50065E070E080E090E00E949C
:101090004E018EE00E941401BC01990F880B990B40
:1010A0000E94EE0B60934E0270934F0280935002A9
:1010B0009093510220E030E040EA5BE30E944D0C47
:1010C00060934A0270934B0280934C0290934D02BE
:1010D0000E94FC03C0904A02D0904B02E0904C0268
:1010E000F0904D0220E030E04AEF54E4C701B60131
:1010F0000E944D0C9B01AC0160E070E48CE995E42A
:101100000E940B0D4B015C0120E030E040EA50E40E
:10111000C701B6010E940B0D9B01AC01C501B401D2
:101120000E94780D6B017C0188E591E00E94EC0241
:10113000C701B6010E940B048DE691E091CF60E0FB
:1011400087E00E94E30060E086E00E94E30061E047
:101150008FE00E94E30060E08FE00E94B50065E050
:1011600070E080E090E00E944E018EE00E94140149
:10117000BC01990F880B990B0E94EE0B60934E02F5
:1011800070934F02809350029093510220E030E020
:1011900040EA5BE30E944D0C60934A0270934B025D
:1011A00080934C0290934D0280E791E00E94EC0204
:1011B00060914A0270914B0280914C0290914D02D5
:1011C0000E94FC0361E087E00E94E30061E087E0A9
:1011D0000E94E30060E08FE00E94E30090CC83ED8A
:1011E00091E00E94DE022091460230914702409138
:1011F0004802509149026ECD26E636E646E65FEBA0
:10120000C701B6010E94190E18160CF0A7C22AE9F0
:1012100039E949E15FEBC701B6010E94E70B87FF9F
:101220009DC287ED91E00E94DE0220E030E0A9013E
:10123000C701B6010E94190E181624F0F7FAF094AF
:10124000F7F8F09420E030E0A901C501B4010E9454
:10125000190E181624F0B7FAB094B7F8B094A50197
:101260009401C701B6010E94190E18169CF488EC6F
:1012700091E00E94DE0220E030E040EA50E460911C
:1012800042027091430280914402909145020E9473
:101290000C0D26CD83ED91E00E94DE02C0904A0243
:1012A000D0904B02E0904C02F0904D0220E030E0F4
:1012B00040EA50E4C701B6010E940C0D4B015C01ED
:1012C000A701960160E070E080EA90E40E940B0DB7
:1012D0009B01AC01C501B4010E94780D6B017C013A
:1012E0008CEC91E00E94EC02C701B6010E940B0455
:1012F00006CC82E092E00E94DE0260E087E00E947D
:10130000B50061E086E00E94B50060E085E00E94E3
:10131000B5008FE00E941401BC01990F880B990B56
:101320000E94EE0B60934E0270934F028093500226
:101330009093510220E030E040EA5BE30E944D0CC4
:101340002B013C0140924A0250924B0260924C02A7
:1013500070924D028EE00E941401BC01990F880B1F
:10136000990B0E94EE0B20E030E040EA5BE30E9424
:101370004D0C6B017C01C0924602D0924702E09274
:101380004802F092490280E10E941401BC01990FC9
:10139000880B990B0E94EE0B20E030E040EA5BE303
:1013A0000E944D0C4B015C018092420290924302DC
:1013B000A0924402B0924502A7019601C301B20176
:1013C0000E940B0D6B017C01A5019401C301B201C8
:1013D0000E940B0D4B015C01C301B2010E94FC0392
:1013E00060914602709147028091480290914902B3
:1013F0000E94FC036091420270914302809144027A
:10140000909145020E94FC03C501B4010E94FC03B7
:10141000C701B6010E94FC032AE939E949E15FE30B
:10142000C701B6010E94190E1816B4F526E636E675
:1014300046E65FE3C701B6010E94E70B87FF2CC0B9
:101440008DE991E00E94DE0220E030E0A901C701B1
:10145000B6010E94190E181624F0F7FAF094F7F866
:10146000F09420E030E0A901C501B4010E94190EFA
:10147000181624F0B7FAB094B7F8B094A501940107
:10148000C701B6010E94190E18161CF48FE092E0F5
:1014900017CC83E192E0A5CE26E636E646E65FEB82
:1014A000C501B4010E94190E18160CF057C12AE9A3
:1014B00039E949E15FEBC501B4010E94E70B87FF01
:1014C0004DC187ED91E00E94DE0220E030E0A901ED
:1014D000C701B6010E94190E181624F0F7FAF0940D
:1014E000F7F8F09420E030E0A901C501B4010E94B2
:1014F000190E181624F0B7FAB094B7F8B094A501F5
:101500009401C701B6010E94190E18161CF48FE051
:1015100092E0AFCE83E192E00E94DE0220E030E074
:1015200040EA50E46091460270914702809148027F
:1015300090914902ACCE87E192E00E94DE0260E029
:1015400087E00E94B50060E086E00E94B50061E09F
:1015500085E00E94B50080E10E941401BC01990F52
:10156000880B990B0E94EE0B60934E0270934F0212
:10157000809350029093510220E030E040EA5BE318
:101580000E944D0C2B013C0140924A0250924B02AA
:1015900060924C0270924D028EE00E941401BC01D8
:1015A000990F880B990B0E94EE0B20E030E040EA87
:1015B0005BE30E944D0C6B017C01C0924602D0920D
:1015C0004702E0924802F09249028FE00E94140123
:1015D000BC01990F880B990B0E94EE0B20E030E0C4
:1015E00040EA5BE30E944D0C4B015C018092420299
:1015F00090924302A0924402B0924502A701960144
:10160000C301B2010E940B0D6B017C01A501940185
:10161000C301B2010E940B0D4B015C01C301B20179
:101620000E94FC036091460270914702809148023B
:10163000909149020E94FC03609142027091430222
:1016400080914402909145020E94FC03C501B401BF
:101650000E94FC03C701B6010E94FC032AE939E994
:1016600049E15FE3C701B6010E94190E1816B4F5EF
:1016700026E636E646E65FE3C701B6010E94E70BC1
:1016800087FF2CC08DE991E00E94DE0220E030E06F
:10169000A901C701B6010E94190E181624F0F7FA25
:1016A000F094F7F8F09420E030E0A901C501B4010E
:1016B0000E94190E181624F0B7FAB094B7F8B09437
:1016C000A5019401C701B6010E94190E18161CF459
:1016D00083E292E0F5CA87E292E083CD26E636E621
:1016E00046E65FEBC501B4010E94190E1816B4F569
:1016F0002AE939E949E15FEBC501B4010E94E70B32
:1017000087FF2CC087ED91E00E94DE0220E030E0F0
:10171000A901C701B6010E94190E181624F0F7FAA4
:10172000F094F7F8F09420E030E0A901C501B4018D
:101730000E94190E181624F0B7FAB094B7F8B094B6
:10174000A5019401C701B6010E94190E18161CF4D8
:1017500083E292E08ECD87E292E0DECE2196C33026
:10176000D10509F0F4C968EE73E080E090E00E94D2
:101770004E01C5C9EDE5F2E01382128288EE93E0D6
:10178000A0E0B0E084839583A683B78384E091E0F2
:101790009183808385EC90E09587848784EC90E04A
:1017A0009787868780EC90E0918B808B81EC90E02E
:1017B000938B828B82EC90E0958B848B86EC90E00F
:1017C000978B868B118E128E138E148E08950E9425
:1017D000290C08F481E00895E89409C097FB3EF4D1
:1017E00090958095709561957F4F8F4F9F4F99236E
:1017F000A9F0F92F96E9BB279395F69587957795EC
:101800006795B795F111F8CFFAF4BB0F11F460FFAB
:101810001BC06F5F7F4F8F4F9F4F16C0882311F003
:1018200096E911C0772321F09EE8872F762F05C017
:10183000662371F096E8862F70E060E02AF09A95B2
:10184000660F771F881FDAF7880F9695879597F9A7
:101850000895990F0008550FAA0BE0E8FEEF161641
:101860001706E807F907C0F012161306E407F50794
:1018700098F0621B730B840B950B39F40A2661F008
:10188000232B242B252B21F408950A2609F4A140AB
:10189000A6958FEF811D811D08950E94600C0C9408
:1018A000D10C0E94C30C38F00E94CA0C20F0952382
:1018B00011F00C94BA0C0C94C00C11240C94050D6E
:1018C0000E94E20C70F3959FC1F3950F50E0551FF5
:1018D000629FF001729FBB27F00DB11D639FAA2785
:1018E000F00DB11DAA1F649F6627B00DA11D661FD4
:1018F000829F2227B00DA11D621F739FB00DA11DF5
:10190000621F839FA00D611D221F749F3327A00DAE
:10191000611D231F849F600D211D822F762F6A2F4A
:1019200011249F5750409AF0F1F088234AF0EE0FAF
:10193000FF1FBB1F661F771F881F91505040A9F7DC
:101940009E3F510580F00C94BA0C0C94050D5F3F3E
:10195000E4F3983ED4F3869577956795B795F79518
:10196000E7959F5FC1F7FE2B880F911D9695879590
:1019700097F9089597F99F6780E870E060E008950F
:101980009FEF80EC089500240A9416161706180697
:101990000906089500240A94121613061406050673
:1019A0000895092E0394000C11F4882352F0BB0F04
:1019B00040F4BF2B11F460FF04C06F5F7F4F8F4F67
:1019C0009F4F089557FD9058440F551F59F05F3FA2
:1019D00071F04795880F97FB991F61F09F3F79F051
:1019E00087950895121613061406551FF2CF4695D3
:1019F000F1DF08C0161617061806991FF1CF869555
:101A00007105610508940895E894BB276627772738
:101A1000CB0197F908955058BB27AA270E94230DA0
:101A20000C94D10C0E94C30C38F00E94CA0C20F018
:101A300039F49F3F19F426F40C94C00C0EF4E09591
:101A4000E7FB0C94BA0CE92F0E94E20C58F3BA178A
:101A5000620773078407950720F079F4A6F50C94C4
:101A6000040D0EF4E0950B2EBA2FA02D0B01B90139
:101A700090010C01CA01A0011124FF27591B99F004
:101A8000593F50F4503E68F11A16F040A22F232F10
:101A9000342F4427585FF3CF469537952795A79560
:101AA000F0405395C9F77EF41F16BA0B620B730B07
:101AB000840BBAF09150A1F0FF0FBB1F661F771F78
:101AC000881FC2F70EC0BA0F621F731F841F48F42D
:101AD000879577956795B795F7959E3F08F0B0CFB6
:101AE0009395880F08F09927EE0F9795879508959D
:101AF0000E948C0D0C94D10C0E94CA0C58F00E94CC
:101B0000C30C40F029F45F3F29F00C94BA0C51113A
:101B10000C94050D0C94C00C0E94E20C68F3992300
:101B2000B1F3552391F3951B550BBB27AA276217D9
:101B30007307840738F09F5F5F4F220F331F441FE6
:101B4000AA1FA9F335D00E2E3AF0E0E832D091501A
:101B50005040E695001CCAF72BD0FE2F29D0660F07
:101B6000771F881FBB1F261737074807AB07B0E84A
:101B700009F0BB0B802DBF01FF2793585F4F3AF050
:101B80009E3F510578F00C94BA0C0C94050D5F3F04
:101B9000E4F3983ED4F3869577956795B795F795D6
:101BA0009F5FC9F7880F911D9695879597F90895BE
:101BB000E1E0660F771F881FBB1F6217730784075A
:101BC000BA0720F0621B730B840BBA0BEE1F88F769
:101BD000E09508950E94EA0C88F09F5798F0B92F7D
:101BE0009927B751B0F0E1F0660F771F881F991F52
:101BF0001AF0BA95C9F714C0B13091F00E94040DE3
:101C0000B1E008950C94040D672F782F8827B85FF2
:101C100039F0B93FCCF3869577956795B395D9F7A9
:101C20003EF490958095709561957F4F8F4F9F4FB3
:101C300008950E94290C08F48FEF08950E94290C42
:101C4000880B990B0895A1E21A2EAA1BBB1BFD015C
:101C50000DC0AA1FBB1FEE1FFF1FA217B307E4078B
:101C6000F50720F0A21BB30BE40BF50B661F771FE3
:101C7000881F991F1A9469F76095709580959095C3
:101C80009B01AC01BD01CF010895EE0FFF1F059030
:101C9000F491E02D0994F894FFCF00000000200299
:101CA0008001AD016D02DE01BC01D0010D0A006EA4
:101CB000616E00696E66006F766600457320756E12
:101CC0002064696F646F207A656E657200413A0026
:101CD000433A00566F6C74616A65207A656E65726E
:101CE0003A20004E6F20657320756E2064696F6422
:101CF0006F00526573697374656E636961206D6509
:101D0000646964613A2000CEA90020566F6C74614A
:101D10006A65206D656469646F3A20004465746586
:101D2000726D696E617220424A54005072696D652D
:101D300072206361736F00457320756E204E504EA4
:101D400020636F6E206C61207369677569656E74BE
:101D50006520636F6E6669677572616369C3B36E90
:101D60003A0042454300426574613A2000424345CF
:101D700000457320756E20504E5020636F6E206CAE
:101D800061207369677569656E746520636F6E663F
:101D900069677572616369C3B36E3A0053656775AD
:101DA0006E646F206361736F004342450045424398
:101DB00000546572636572206361736F004345422E
:101DC00000454342005265616C697A616E646F2020
:0C1DD0006D65646963696F6E65730000E7
:107E0000112484B714BE81FFF0D085E080938100F7
:107E100082E08093C00088E18093C10086E0809377
:107E2000C20080E18093C4008EE0C9D0259A86E02C
:107E300020E33CEF91E0309385002093840096BBD3
:107E4000B09BFECF1D9AA8958150A9F7CC24DD24C4
:107E500088248394B5E0AB2EA1E19A2EF3E0BF2EE7
:107E6000A2D0813461F49FD0082FAFD0023811F036
:107E7000013811F484E001C083E08DD089C08234E0
:107E800011F484E103C0853419F485E0A6D080C0E4
:107E9000853579F488D0E82EFF2485D0082F10E0AE
:107EA000102F00270E291F29000F111F8ED06801E7
:107EB0006FC0863521F484E090D080E0DECF843638
:107EC00009F040C070D06FD0082F6DD080E0C81688
:107ED00080E7D80618F4F601B7BEE895C0E0D1E017
:107EE00062D089930C17E1F7F0E0CF16F0E7DF06D8
:107EF00018F0F601B7BEE89568D007B600FCFDCFD4
:107F0000A601A0E0B1E02C9130E011968C91119780
:107F100090E0982F8827822B932B1296FA010C0160
:107F200087BEE89511244E5F5F4FF1E0A038BF0790
:107F300051F7F601A7BEE89507B600FCFDCF97BE46
:107F4000E89526C08437B1F42ED02DD0F82E2BD052
:107F50003CD0F601EF2C8F010F5F1F4F84911BD097
:107F6000EA94F801C1F70894C11CD11CFA94CF0C13
:107F7000D11C0EC0853739F428D08EE10CD085E9AC
:107F80000AD08FE07ACF813511F488E018D01DD067
:107F900080E101D065CF982F8091C00085FFFCCF94
:107FA0009093C60008958091C00087FFFCCF809118
:107FB000C00084FD01C0A8958091C6000895E0E648
:107FC000F0E098E1908380830895EDDF803219F02E
:107FD00088E0F5DFFFCF84E1DECF1F93182FE3DFCA
:107FE0001150E9F7F2DF1F91089580E0E8DFEE27F6
:047FF000FF270994CA
:027FFE00040479
:00000001FF
